:020000040800F2
:10000000780700204D02000859100008CF0F0008A3
:1000100055100008F3030008251300080000000035
:100020000000000000000000000000005D1000085B
:10003000F7030008000000005B1000085F100008D4
:1000400067020008670200086702000867020008EC
:1000500067020008670200086702000867020008DC
:1000600067020008670200086702000867020008CC
:1000700067020008670200086702000867020008BC
:1000800067020008670200086702000867020008AC
:10009000670200086702000867020008670200089C
:1000A000670200086702000867020008670200088C
:1000B000670200086702000867020008670200087C
:1000C000670200086702000867020008670200086C
:1000D00067020008F91200086702000867020008BA
:1000E000670200086702000867020008670200084C
:1000F000670200086702000867020008670200083C
:10010000670200086702000867020008670200082B
:1001100067020008670200088D11000867020008E6
:10012000670200086702000867020008670200080B
:1001300067020008670200086702000867020008FB
:1001400067020008670200086702000867020008EB
:1001500067020008670200086702000867020008DB
:1001600067020008670200086702000867020008CB
:10017000670200086702000867020008000000002C
:1001800067020008670200086702000867020008AB
:10019000670200086702000867020008670200089B
:1001A00067020008670200086702000800F002F812
:1001B00000F03CF80AA090E8000C82448344AAF1C5
:1001C0000107DA4501D100F031F8AFF2090EBAE8C3
:1001D0000F0013F0010F18BFFB1A43F0010318477B
:1001E0003C1600005C160000103A24BF78C878C1A5
:1001F000FAD8520724BF30C830C144BF04680C602D
:10020000704700000023002400250026103A28BF74
:1002100078C1FBD8520728BF30C148BF0B60704778
:100220001FB501F0E9FA1FBD10B510BD00F0A8F828
:100230001146FFF7F5FF01F0DBF800F0C6F803B454
:10024000FFF7F2FF03BC00F0CDF80000094880473B
:1002500009480047FEE7FEE7FEE7FEE7FEE7FEE7A8
:10026000FEE7FEE7FEE7FEE704480549054A064BC0
:100270007047000029110008AD0100087801002036
:1002800078070020780300207803002053EA020C4E
:1002900000F069802DE9F04B4FF00006002B1FBFE6
:1002A000B3FA83F503FA05F424FA05F65E4012BFAB
:1002B0001643B2FA82F502FA05F4C5F120051EBF15
:1002C00022FA05FC44EA0C04203556EA044C4FEAB5
:1002D000144418BF641C4FF000084FF0000990420E
:1002E00071EB030C39D3002919BFB1FA81F701FA78
:1002F00007F6B0FA80F700FA07F6C7F120071EBF2D
:1003000020FA07FC46EA0C062037B6FBF4FCA7EB04
:100310000507103F07F01F0BCBF120060CFA0BFB73
:100320002CFA06F644BFB3460026202FA4BF5E4633
:100330004FF0000B5BEA060C08BF4FF0010B19EB06
:100340000B09ABFB027C48EB0608C01B06FB02CC8A
:100350000BFB03CC71EB0C01C1E70B460246414697
:100360004846BDE8F08B13B54FF000004FF0000198
:10037000AFF30080BDE81C4070477047704770477E
:10038000754600F02BF8AE4605006946534620F04E
:100390000700854618B020B5FFF766FFBDE820408E
:1003A0004FF000064FF000074FF000084FF0000B31
:1003B00021F00701AC46ACE8C009ACE8C009ACE8E4
:1003C000C009ACE8C0098D46704710B50446AFF3CC
:1003D00000802046BDE81040FFF731BF004870475D
:1003E0001801002001491820ABBEFEE726000200DC
:1003F000704700BFFEE77047F8B502460B46002580
:10040000002400200021E6E0012606FA01F51E681E
:1004100006EA0504AC4273D15E68012E08D05E681E
:10042000022E05D05E68112E02D05E68122E13D106
:1004300090684F000326BE40B0434F00DE68BE40C8
:1004400030439060506801268E40B0431E79C6F359
:1004500000168E4030435060D0684F000326BE40E7
:10046000B0434F009E68BE403043D0605E68022EAD
:1004700002D05E68122E13D1CF0802F1200656F882
:1004800027004E07F70E0F26BE40B0434F07FF0E62
:100490001E69BE403043CF0802F1200646F827000F
:1004A00010684F000326BE40B0431E7906F00306D5
:1004B0004F00BE40304310605E6806F08056B6F1D3
:1004C000805FA8D100BF00260096454E366846F4EE
:1004D0008046434F3E603E46366806F480460096AE
:1004E00000BF00BF3F4E8F0856F827008E07370F1A
:1004F0000F26BE40B0433C4EB24202D100262EE051
:1005000068E03A4EB24201D1012628E0384EB242AC
:1005100001D1022623E0374EB24201D103261EE06C
:10052000354EB24201D1042619E0344EB24201D117
:10053000052614E0324EB24201D106260FE0314EBC
:10054000B24201D107260AE02F4EB24201D108265D
:1005500005E02E4EB24201D1092600E00A268F079F
:100560003F0FBE4030431F4E8F0846F82700284EED
:100570003068A0435E6806F48036B6F5803F00D14F
:100580002043234E3060361D3068A0435E6806F479
:100590000036B6F5003F00D120431D4E361D3060B9
:1005A000361D3068A0435E6806F48016B6F5801FDD
:1005B00000D12043164E08363060361D3068A04307
:1005C0005E6806F40016B6F5001F00D12043104EF9
:1005D0000C363060491C1029FFF416AFF8BD00003E
:1005E0004438024008380140000002400004024044
:1005F00000080240000C02400010024000140240BB
:1006000000180240001C024000200240002402406A
:10061000003C01400AB1816101E00B048361704735
:10062000014800687047000000000020034800688F
:100630000349097808440149086070470000002018
:100640000800002010B50D48006840F400700B4908
:1006500008600846006840F480600860084600684A
:1006600040F480700860032000F084F80F2000F050
:1006700007F800F02BF8002010BD0000003C0240FD
:1006800070B504460E4800784FF47A71B1FBF0F073
:100690000C490968B1FBF0F5284600F03DFC08B1B3
:1006A000012070BD102C07D200222146501E00F000
:1006B00022F80548046001E00120F2E70020F0E79D
:1006C000080000200C0000200400002010B50520C8
:1006D00000F050F810BD01460846002809DB00F084
:1006E0001F0301229A4043099B0003F1E023C3F852
:1006F000002100BF70472DE9F05F80460D46164689
:10070000002700F011FE074639462A46334601F01D
:100710000700C0F1070ABAF1040F02D94FF0040A2A
:1007200001E0C0F1070AD14600F1040ABAF1070F4F
:1007300002D24FF0000A01E0A0F1030AD4464FF0C4
:10074000010A0AFA09FAAAF1010A0AEA020A0AFAED
:100750000CFA4FF0010B0BFA0CFBABF1010B0BEA9F
:10076000030B4AEA0B042146404600F0E5FDBDE8D4
:10077000F09F000000BF00F00702064B19684FF61B
:10078000FF031940044B0B4343EA0221014B19605C
:1007900000BF70470CED00E00000FA0538B50024FA
:1007A00000BF002000901D48006840F080501B49A9
:1007B00008600846006800F08050009000BF00BF4D
:1007C000012017490864FFF72BFF044607E0FFF7F5
:1007D00027FF001BB0F57A7F01D9032038BD1148EF
:1007E000406800F48030B0F5803FF0D101200C4922
:1007F0004864FFF715FF044607E0FFF711FF001BF1
:10080000B0F57A7F01D90320E8E70648406800F494
:100810000030B0F5003FF0D10020DFE74038024063
:1008200000000E420070004070B504460D460CB941
:10083000012070BD5848006800F00F00A84209D29E
:1008400055490D700846006800F00F00A84201D01D
:100850000120EEE7207800F0020002281DD1207868
:1008600000F00400042805D14C48006840F4E05032
:100870004A490860207800F00800082805D1474858
:10088000006840F46040454908604448006820F032
:10089000F000A168084341490860207800F0010099
:1008A000A8B36068012807D13C4808380068C0F345
:1008B0004040B8B90120BCE76068022802D06068F7
:1008C000032807D1354808380068C0F3406048B9AC
:1008D0000120AEE7314808380068C0F3400008B98D
:1008E0000120A6E72D48006820F003006168084356
:1008F0002A490860FFF794FE064609E0FFF790FEDC
:10090000801B41F28831884202D9032091E707E039
:100910002248006800F00C006168B0EB810FEDD157
:100920001D48006800F00F00A84209D91A490D704F
:100930000846006800F00F00A84201D0012078E7C7
:10094000207800F00400042807D11448006820F43F
:10095000E050E168084311490860207800F0080081
:10096000082808D10D48006820F46040216940EA59
:10097000C1000A49086000F01FF808490968C1F37E
:100980000311074A515CC8400649086006480068E0
:10099000FFF776FE00204CE7003C0240083802409A
:1009A000021800080C000020040000200148006824
:1009B000704700000C0000202DE9F04700240025BE
:1009C0000026A1462548006800F00C0020B104284C
:1009D00005D008283AD105E0DFF8849039E0DFF847
:1009E000849036E01D48001F006800F03F041B485B
:1009F000001F006800F4800078B11A481749091FE9
:100A00000968C1F38811A0FB01700146224600234A
:100A10003846FFF73BFC05460EE011480F49091F19
:100A20000968C1F38811A0FB01700146224600232A
:100A30003846FFF72BFC05460848001F0068C0F346
:100A40000140401C4600B5FBF6F902E0DFF81090CB
:100A500000BF00BF4846BDE8F087000008380240EC
:100A60000024F40040787D01F8B504460CB901205B
:100A7000F8BD207800F00100002874D0F948006823
:100A800000F00C0004280DD0F648006800F00C00BF
:100A9000082813D1F348001F006800F48000B0F567
:100AA000800F0BD1EF4808380068C0F340400028A1
:100AB00059D06068002856D10120D9E700BF60688E
:100AC000B0F5803F08D1E7480838006840F480302E
:100AD000E449083908601EE06068B0F5A02F0DD128
:100AE000E0480838006840F48020DE490839086092
:100AF0000846006840F4803008600CE0D9480838A7
:100B0000006820F48030D74908390860084600683A
:100B100020F48020086000BF606890B1FFF780FD7E
:100B2000054606E0FFF77CFD401B642801D9032041
:100B30009EE7CC4808380068C0F340400028F1D058
:100B400011E0FFF76DFD054606E0FFF769FD401B6C
:100B5000642801D903208BE7C24808380068C0F335
:100B600040400028F1D1207800F0020002285FD137
:100B7000BC48006800F00C0058B1BA48006800F0AA
:100B80000C0008281CD1B748001F006800F4800042
:100B9000B0B9B44808380068C0F3400020B1E0683C
:100BA000012801D0012063E7AE480838006820F032
:100BB000F800216940EAC100AA490839086037E015
:100BC000E06800B30120A8490860FFF729FD054649
:100BD00006E0FFF725FD401B022801D9032047E767
:100BE000A04808380068C0F340000028F1D09D48B4
:100BF0000838006820F0F800216940EAC1009949EE
:100C00000839086014E0002097490860FFF708FDE4
:100C1000054606E0FFF704FD401B022801D903202A
:100C200026E7904808380068C0F340000028F1D15A
:100C3000207800F0080008282CD16069A8B10120B4
:100C40008A490860FFF7ECFC054606E0FFF7E8FC80
:100C5000401B022801D903200AE782486C30006853
:100C6000C0F340000028F1D014E000207F49086064
:100C7000FFF7D6FC054606E0FFF7D2FC401B022832
:100C800001D90320F4E677486C300068C0F34000D7
:100C90000028F1D1207800F00400042870D100274A
:100CA00070483830006800F0805090B900BF0020D4
:100CB00000906C483830006840F080506949383105
:100CC00008600846006800F08050009000BF00BF38
:100CD00001276748006800F48070B0B96448006874
:100CE00040F4807062490860FFF79AFC054606E010
:100CF000FFF796FC401B022801D90320B8E65C48A8
:100D0000006800F480700028F2D000BFA0680128BD
:100D100008D154486830006840F0010051496831FA
:100D200008601DE0A06805280DD14E4868300068B5
:100D300040F004004B49683108600846006840F004
:100D4000010008600CE047486830006820F00100AE
:100D50004449683108600846006820F004000860D3
:100D600000BFA068A8B1FFF75BFC054609E0FFF7EC
:100D700057FC401B41F28831884202D9032077E6B4
:100D800026E0384868300068C0F340000028EED004
:100D900013E0FFF745FC054608E0FFF741FC401B68
:100DA00041F28831884201D9032061E62D4868303C
:100DB0000068C0F340000028EFD1012F07D1294877
:100DC0003830006820F0805026493831086000BF74
:100DD000A069002845D02348006800F00C000828CE
:100DE0005DD0A069022845D100201F490866FFF7A1
:100DF00017FC054606E0FFF713FC401B022801D94B
:100E0000032035E6174808380068C0F34060002822
:100E1000F1D1D4E907010843616A40EA8111012256
:100E2000A06AC2EB500041EA00412C20005D41EA7B
:100E300000600C49091F086001200B490866FFF794
:100E4000EFFB054606E0FFF7EBFB401B022801D94C
:100E500003200DE6034808380068C0F3406000280E
:100E6000F1D03FE00838024000004742800E474280
:100E70000070004000201C490866FFF7D1FB0546C2
:100E800006E0FFF7CDFB401B022801D90320EFE568
:100E900016480068C0F340600028F2D122E0A06943
:100EA000012800D1E4E51148001D066806F4800120
:100EB000E069814214D106F03F01206A81420FD1DE
:100EC00047F6C0703040616A884209D106F440316B
:100ED000A06A814204D106F07061E06A814201D0CB
:100EE0000120C5E50020C3E500004742003802406C
:100EF000042808D14FF0E021096941F004014FF0C6
:100F0000E022116107E04FF0E021096921F00401BE
:100F10004FF0E0221161704770B504462546681E07
:100F2000B0F1807F01D301200FE0681E4FF0E02177
:100F300048610F214FF0FF3000F0FEF900204FF024
:100F4000E021886107200861002070BD10B50446CB
:100F50000CB9012010BD94F83D0028B9002084F898
:100F60003C00204600F00CF8022084F83D00211DD2
:100F7000206800F027F9012084F83D000020E9E70F
:100F800010B5044606492068884207D10122002195
:100F90003620FFF7B0FB3620FFF79DFB10BD0000A9
:100FA0000010004001460868C06840F001000B686E
:100FB000D8600868806800F00702062A05D0086833
:100FC000006840F001000B6818600020704700BF07
:100FD000FEE7D0F80021117090F80021521C121A7F
:100FE000D2B20244C0F8002100F580720CCA9A42C5
:100FF00007D190F80421521C121AD2B20244C0F850
:101000000421704700B587B000BF002001900F4851
:10101000006840F002000D4908600846006800F0D2
:101020000200019000BF00BF032002900120039046
:1010300004900020059002A90548FFF7DDF9012280
:1010400003210348FFF7E6FA07B000BD303802403D
:101050000004024000BFFEE770477047704710B5BC
:10106000FFF7E4FA10BD000010B592B000BF0020F9
:1010700000902B48006840F08050294908600846DD
:10108000006800F08050009000BF00BF00BF00204B
:1010900000902448006840F4404022490860084617
:1010A000006800F44040009000BF00BF012006909F
:1010B0000004079002200C9041050D9119210E911A
:1010C0004FF4B4710F91022110910421119106A8DF
:1010D000FFF7CAFCFFF762FB0F200190022002908D
:1010E000002003904FF4A05004904FF480500590DE
:1010F000052101A8FFF798FBFFF758FC4FF47A7120
:10110000B0FBF1F42046FFF707FF0420FFF7F0FEE5
:1011100000221146501EFFF7EEFA12B010BD00007B
:1011200040380240007000401448006840F47000ED
:10113000124908601248006840F001001049086038
:1011400000200F49083108600D4800680D4908402B
:101150000B4908600C48091D0860081F006820F44E
:101160008020091F0860002005490C3108604FF0FD
:1011700000600249803908607047000088ED00E097
:1011800000380240FFFFF6FE103000240A480069D4
:1011900040F0010070B10848C06840F0010048B15B
:1011A0006FF00100044908610448006880F0010004
:1011B00003490860704700000010004080824042F0
:1011C0008082404210B50268294B98420ED0B0F19F
:1011D000804F0BD0274B984208D0274B984205D020
:1011E000264B984202D0264B984203D122F070023F
:1011F0004B681A431E4B984220D0B0F1804F1DD04F
:101200001C4B98421AD01C4B984217D01B4B98424B
:1012100014D01B4B984211D01A4B98420ED01A4B47
:1012200098420BD0194B984208D0194B984205D0E0
:10123000184B984202D0184B984203D122F44072C6
:10124000CB681A4322F080034C6943EA040202602F
:101250008B68C3620B688362054B984202D0084BCF
:10126000984201D10B6903630123436110BD000063
:10127000000001400004004000080040000C004055
:10128000000401400040014000440140004801408A
:1012900000180040001C00400020004000B591B044
:1012A00000BF002000901248006840F01000104974
:1012B00008600846006800F01000009000BF00BF02
:1012C0000C4801900114079142F22730029041F23C
:1012D0008731049100208DF840008DF8410001A86D
:1012E000FFF734FE01A8FFF75DFE11B000BD00005E
:1012F000403802400010004010B50848006800F077
:10130000200050B10548C06800F0200028B1034813
:101310004068C1B20248FFF75CFE10BD00100140FA
:101320001000002000BFFEE702480068C0F3022062
:10133000704700000CED00E010B5002804DB0A0740
:10134000130E054A135406E00A07140E034A00F070
:101350000F031B1FD45410BD00E400E018ED00E0A3
:1013600070B50446002504E04FF47A7000F004F8EC
:101370006D1CA542F8D370BD2DE9F05F2DED048BF7
:101380000746FFF719FB834600F0CFF941EC190B34
:101390009FED150B53EC102B00F042F841EC180BAD
:1013A00000F096F9804600264FF0E020D0F814A017
:1013B00007FB08F9856911E04FF0E0208469AC4231
:1013C0000CD0AC4202D2281B064403E0AAEB040076
:1013D0002844064425464E4500D300E0ECE700BF14
:1013E000BDEC048BBDE8F09F0000000080842E411E
:1013F000FFF728F9FFF738FEFFF704FEFFF74EFF6F
:1014000009E00548406880F00100044948604FF455
:101410007A70FFF7A5FFF4E7808240428082404265
:101420002DE9C04130B4DFF8A0C23CEA111418BF66
:101430003CEA131400F0EC8081EA03051CEA111465
:1014400044EAD57418BF1CEA131500F0C780A4EB5A
:1014500005044FF0004545EAC12145EAC32341EAAE
:10146000505143EA525304F17F74994204F5003419
:101470004FEAC0204FEAC22208BF904200F09C8091
:101480004FEA13650FF24016765D4FEA134506FBEF
:1014900005F7C7F1807706FB07F74FEAD737A7FBB9
:1014A00003687642C8F58038A7FB06CE38BFA8F19E
:1014B000010807FB08E64FF0000EA6FB028CE6FBD6
:1014C00003CEDCF1000CCEF1004E38BFAEF1010EC0
:1014D000A6FB0C584FF000074FF00005E6FB0E8707
:1014E000A1FB08C6A0FB07CE16EB0E0645F10005D2
:1014F000E1FB076515F1E04E7EBFA4F580345FEA9D
:1015000046066D4116F1800745F100054FEA1727A1
:101510004FEA066647EA0567A6F1DE46B6F1805F48
:101520004FEA15251FD9384624F0010C05EBC4718C
:10153000BCF1FE6F01EB0C1102D8F0BCBDE80081DC
:1015400024425CBF01F5801E9EEAC47F02D4F0BC39
:10155000BDE80081244238D4F0BCA1F1C041BDE80F
:10156000004100F043B94FEAD22242EA43524FEA27
:10157000D323A7FB02864FEAD02040EA415007FB65
:1015800003661EEA0E0F4FEAD12105FB026658BF23
:10159000A6EB0056B6EB00564FEA520E4EEAC37E5B
:1015A00018EB0E0E56EB530EBDD518EB02085E413C
:1015B0007F1C55F10005B6E74FF480154FF000078A
:1015C0004FF000064FF00008ADE7F0BC4FF0000010
:1015D00001F1C04101F00041BDE8008111EA0C1F9A
:1015E0000CEA131500D00CE013EA0C1F00F0258064
:1015F0004FF00000F0BC81EA030101F00041BDE8BA
:101600000081F0BCBDE8004181EA030100F0EEB8C2
:10161000F0BCBDE8004170B500F09AF8097EFC3ED0
:1016200000F007B881EA03014FF0000001F000412B
:10163000704781EA030100F0D9B8F0BCBDE8004171
:101640004FF0000021497047FFFDFBF9F7F5F4F278
:10165000F0EEEDEBE9E8E6E4E3E1E0DEDDDBDAD84D
:10166000D7D5D4D3D1D0CFCDCCCBCAC8C7C6C5C4AB
:10167000C2C1C0BFBEBDBCBBBAB9B8B7B6B5B4B3C2
:10168000B2B1B0AFAEADACABAAA9A8A8A7A6A5A4AD
:10169000A3A3A2A1A09F9F9E9D9C9C9B9A99999871
:1016A0009797969595949393929191908F8F8E8E14
:1016B0008D8C8C8B8B8A89898888878786858584A1
:1016C00084838382828181800000FF070000F87F8D
:1016D0004FEA1153A3F58063D3F11E03A8BFD3F1E2
:1016E000200C08DB4FF0004242EAC12252EA50527D
:1016F00032FA03F0704709420BD4102BC4BF00200C
:10170000704703F5787CBCF1FF3F05D04FF0FF3008
:1017100070474FF00000704770B500F019F800BF37
:101720004992248000207047F0E7B0FA80F310FA65
:1017300003F10AD0C3F11D0303F580634FEA415062
:101740004FEA035202EBD12170474FF0000070477F
:101750000EF1020E2EF0030E5EF8046B364205D435
:10176000012A43EB030515F5001F12D8012841EBB0
:10177000010C1CF5001F0CD80ED14FEAD17C15F5D9
:10178000001F0CEB4C0C0CF1020C08BF4CEBD37C93
:1017900004E04FF0080C01E04FEAD37C0CEB4C0561
:1017A00026FA05F606F00706B6F1040C06D20EEB93
:1017B000860CBDE870404CF0010C6047DFE80CF08F
:1017C000090B02024FF000414FF00000A1F500218B
:1017D00070BD19461046012851EB010418BFD4F51D
:1017E000001484BF002001F0004170BD0808A0F57E
:1017F00000114FEA310170474FF04070E1EE100ADE
:10180000704700000000000000000102030406070A
:101810000809000000000102030400003C18000851
:101820000000002010000000E80100084C1800082B
:1018300010000020680700000402000800000000FB
:0C18400010000000010000000024F40073
:04000005080001AD41
:00000001FF
