:020000040800F2
:1000000028050020C1010008CD1200082D120008AB
:10001000C91200082D04000829180008000000007B
:100020000000000000000000000000000B130008AA
:100030003104000800000000091300080D13000837
:10004000DB010008DB010008DB010008DB01000820
:10005000DB010008DB01000835040008DB010008B3
:100060005D04000871040008DB010008DB010008E2
:10007000DB010008DB010008DB010008DB010008F0
:10008000DB010008DB010008DB010008DB010008E0
:10009000DB010008DB010008DB010008DB010008D0
:1000A000DB010008DB010008DB010008DB010008C0
:1000B000DB010008DB010008DB010008DB010008B0
:1000C000DB010008DB010008DB010008DB010008A0
:1000D000DB0100089D170008DB010008DB010008B8
:1000E00049040008DB010008DB010008DB0100080F
:1000F000DB010008DB010008DB010008DB01000870
:10010000DB010008DB010008DB010008DB0100085F
:10011000DB010008DB010008DB010008DB0100084F
:10012000DB010008DB010008DB010008DB0100083F
:10013000DB010008DB010008DB010008DB0100082F
:10014000DB010008DB010008DB010008DB0100081F
:10015000DB010008DB010008DB010008DB0100080F
:10016000DB010008DB010008DB010008DB010008FF
:10017000DB010008DB010008DB01000800000000D3
:10018000DB010008DB010008DB010008DB010008DF
:10019000DB010008DB010008DB010008DB010008CF
:1001A000DB010008DB010008DB010008DFF80CD0F0
:1001B00000F02AF900480047291900082805002006
:1001C0000648804706480047FEE7FEE7FEE7FEE7F1
:1001D000FEE7FEE7FEE7FEE7FEE7FEE7D1130008D5
:1001E000AD0100082DE9F04D81EA030404F0004B55
:1001F00021F0004514464FF0000A23F0004150EA78
:10020000050220D054EA01021DD0C5F30A57024668
:10021000C5F31303C1F31300C1F30A5640F480156C
:1002200043F48013A7EB0608101BD64608F2FD38EE
:1002300073EB050002D308F1010801E092185B415D
:10024000B8F1000F03DA00200146BDE8F08D002070
:100250004FF48011064684460EE0171B73EB05072A
:1002600005D3121B63EB050306434CEA010C490856
:100270004FEA300092185B4150EA0107EDD152EA93
:10028000030012D082EA040083EA0501084305D086
:10029000101BAB4106D20122002306E000224FF0E2
:1002A000004302E06FF0010253101AEB06004CEB22
:1002B000085110EB0A0041EB0B01BDE8F04D00F0D6
:1002C00045B80EB540F2334102910021CDE900114D
:1002D0000A460B4600F049F803B000BDC1F30A52CC
:1002E00010B5C1F3130140F2FF3341F480119A427B
:1002F00001DA002010BD40F233439A42A2F23342A9
:1003000003DC524200F012F810BD904010BD202ACC
:1003100004DB203A00FA02F1002070479140C2F15C
:10032000200320FA03F3194390407047202A04DB8E
:10033000203A21FA02F00021704721FA02F3D0405E
:10034000C2F12002914008431946704710B5141EAF
:1003500073F1000408DA401C41F1000192185B417E
:100360001A4301D120F0010010BD2DE9F04D924655
:100370009B4611B1B1FA81F202E0B0FA80F220326C
:100380009046FFF7C4FF04460F4640EA0A0041EAE0
:100390000B0153465A46084313D0114653EA010055
:1003A00019D0C8F140025046FFF7C0FF05460E467F
:1003B000504659464246FFF7AAFF084305D00120A0
:1003C00004E020463946BDE8F08D0020054346EAAA
:1003D000E0762C4337430A986305E40AA0EB080053
:1003E0000022FD0A44EA47540A3002D500200146A3
:1003F000E9E7010510196941DDE90845001969417E
:10040000BDE8F04DA2E70000064C074D06E0E068AD
:1004100040F0010394E8070098471034AC42F6D34B
:10042000FFF7C8FE641900088419000800BFFEE742
:100430007047000010B501200249087000F0FEF876
:1004400010BD00001800002010B5012002490870FE
:10045000400300F0F3F810BD1B00002010B5012090
:1004600002490870042000F0E9F810BD19000020CE
:1004700010B5012002490870082000F0DFF810BD17
:100480001A00002000B587B000BF0020019034485A
:10049000006840F00100324908600846006800F03A
:1004A0000100019000BF00BF00BF0020019008467E
:1004B000006840F0040008600846006800F004008E
:1004C000019000BF00BF00BF0020019008460068F7
:1004D00040F0800008600846006800F0800001904D
:1004E00000BF00BF012002901E480390022004902C
:1004F000059002A91C4800F0AFF80C2002901B48A0
:1005000003900120049002A9194800F0A5F84FF4C7
:100510000050029002A9174800F09EF80022022124
:10052000062000F0F9F9062000F0E9F90122022185
:10053000082000F0F1F9082000F0E1F9022211464C
:10054000092000F0E9F9092000F0D9F9032202217D
:10055000282000F0E1F9282000F0D1F907B000BD13
:10056000303802400000111000000240000021104D
:10057000001C02400008024010B50446642001F04F
:100580007DF9012C07D0042C14D0082C1CD0B4F514
:10059000005F31D126E019480068012809D11848C8
:1005A0004068184908601848406880F00100174901
:1005B000486021E01648806828B91648006880F035
:1005C00001001549086017E01448C06848B914488C
:1005D000006880F00100134908601348006813495F
:1005E000486009E01248406B28B91248406880F022
:1005F00001001149486000BF00BF10BD0002404229
:1006000080824042808240428082404280824042DA
:1006100000824342808240428082404200824342C4
:1006200080824042808240428082404280824042BA
:1006300000024142808240428082404210B504461E
:1006400004480068204020B1024804602046FFF7BB
:1006500093FF10BD143C0140F8B502460B4600253F
:10066000002400200021E6E0012606FA01F51E68BC
:1006700006EA0504AC4273D15E68022E02D05E68C1
:10068000122E13D1CF0802F1200656F827004E078C
:10069000F70E0F26BE40B0434F07FF0E1E69BE4047
:1006A0003043CF0802F1200646F8270010684F00BB
:1006B0000326BE40B0431E7906F003064F00BE403D
:1006C000304310605E68012E08D05E68022E05D0AF
:1006D0005E68112E02D05E68122E13D190684F0012
:1006E0000326BE40B0434F00DE68BE4030439060FA
:1006F000506801268E40B0431E79C6F300168E4026
:1007000030435060D0684F000326BE40B0434F00D6
:100710009E68BE403043D0605E6806F08056B6F1F9
:10072000805FA8D100BF00260096454E366846F48B
:100730008046434F3E603E46366806F4804600964B
:1007400000BF00BF3F4E8F0856F827008E07370FB7
:100750000F26BE40B0433C4EB24202D100262EE0EE
:1007600068E03A4EB24201D1012628E0384EB2424A
:1007700001D1022623E0374EB24201D103261EE00A
:10078000354EB24201D1042619E0344EB24201D1B5
:10079000052614E0324EB24201D106260FE0314E5A
:1007A000B24201D107260AE02F4EB24201D10826FB
:1007B00005E02E4EB24201D1092600E00A268F073D
:1007C0003F0FBE4030431F4E8F0846F82700284E8B
:1007D0003068A0435E6806F48036B6F5803F00D1ED
:1007E0002043234E3060361D3068A0435E6806F417
:1007F0000036B6F5003F00D120431D4E361D306057
:10080000361D3068A0435E6806F48016B6F5801F7A
:1008100000D12043164E08363060361D3068A043A4
:100820005E6806F40016B6F5001F00D12043104E96
:100830000C363060491C1029FFF416AFF8BD0000DB
:1008400044380240083801400000024000040240E1
:1008500000080240000C0240001002400014024058
:1008600000180240001C0240002002400024024008
:10087000003C01400AB1816101E00B0483617047D3
:10088000014800687047000014000020024800681A
:10089000401C0149086070471400002010B50D4845
:1008A000006840F400700B4908600846006840F496
:1008B000806008600846006840F480700860052089
:1008C00000F068F80F2000F007F800F017F800209B
:1008D00010BD0000003C024070B5044600F092F9E3
:1008E0004FF47A71B0FBF1F5284600F00FFC0022BE
:1008F0002146501E00F010F8002070BD704700BF68
:1009000000F01F02012191404209920002F1E02211
:10091000C2F8001100BF70472DE9F05F80460D4618
:100920001646002700F0D4FC074639462A463346CF
:1009300001F00700C0F1070ABAF1040F02D94FF025
:10094000040A01E0C0F1070AD14600F1040ABAF135
:10095000070F02D24FF0000A01E0A0F1030AD446CB
:100960004FF0010A0AFA09FAAAF1010A0AEA020A90
:100970000AFA0CFA4FF0010B0BFA0CFBABF1010B6E
:100980000BEA030B4AEA0B042146404600F0A8FCA0
:10099000BDE8F09F00BF00F00702064B19684FF654
:1009A000FF031940044B0B4343EA0221014B19603A
:1009B00000BF70470CED00E00000FA0538B50024D8
:1009C00000BF002000902348006840F0805021497B
:1009D00008600846006800F08050009000BF00BF2B
:1009E0000120010491FAA1F1B1FA81F11A4A42F809
:1009F0002100FFF745FF044607E0FFF741FF001B1A
:100A0000B0F57A7F01D9032038BD1448406800F45E
:100A10008030B0F5803FF0D10120410491FAA1F17E
:100A2000B1FA81F10C4A42F82100FFF729FF044690
:100A300007E0FFF725FF001BB0F57A7F01D90320FF
:100A4000E2E70648406800F40030B0F5003FF0D11E
:100A50000020D9E74038024000000E4200700040FC
:100A600070B504460D4600266448006800F00F008B
:100A7000A84209D261490D700846006800F00F00D5
:100A8000A84201D0012070BD207800F002000228A9
:100A900007D15B48006820F0F000A168084358497E
:100AA0000860207800F00100002877D060680128F5
:100AB00007D1534808380068C0F34040B8B9012056
:100AC000E1E76068022802D06068032807D14C483B
:100AD00008380068C0F3406048B90120D3E74848AF
:100AE00008380068C0F3400008B90120CBE744484B
:100AF000006820F003006168084341490860FFF77F
:100B0000BFFE06466068012810D108E0FFF7B8FE76
:100B1000801B41F28831884201D90320B3E738486D
:100B2000006800F00C000428F0D137E0606802286B
:100B300010D108E0FFF7A4FE801B41F28831884203
:100B400001D903209FE72E48006800F00C00082818
:100B5000F0D123E06068032810D108E0FFF790FE91
:100B6000801B41F28831884201D903208BE7244859
:100B7000006800F00C000328F0D10FE008E0FFF758
:100B80007FFE801B41F28831884201D903207AE739
:100B90001B48006800F00C000028F0D117480068DE
:100BA00000F00F00A84209D914490D7008460068EA
:100BB00000F00F00A84201D0012064E7207800F087
:100BC0000400042807D10E48006820F4E050E168D2
:100BD00008430B490860207800F00800082808D175
:100BE0000748006820F46040216940EAC1000449D8
:100BF00008600F20FFF770FE002044E7003C024031
:100C00000838024010B500F045F80949096801F0BC
:100C1000F001F02292FAA2F2B2FA82F2D140054A31
:100C2000515CC840044908600846006810BD0000D7
:100C300008380240541900080000002010B5FFF7E2
:100C4000E1FF0749096801F4E0514FF4E05292FADC
:100C5000A2F2B2FA82F2D140024A515CC84010BD01
:100C6000083802405419000810B5FFF7CBFF0749B8
:100C7000096801F460414FF4604292FAA2F2B2FABC
:100C800082F2D140024A515CC84010BD083802408F
:100C90005419000870B50021002200230020274CC1
:100CA000246804F00C0424B1042C04D0082C41D195
:100CB00003E0234840E023483EE0204C241F246802
:100CC00004F03F011D4C241F246804F4800484B107
:100CD0001C4CB4FBF1F5194C241F246847F6C07670
:100CE000344096FAA6F6B6FA86F6F44005FB04F20E
:100CF0000FE0134CB4FBF1F5104C241F246847F6A9
:100D0000C076344096FAA6F6B6FA86F6F44005FBAD
:100D100004F20A4C241F246804F440344FF4403594
:100D200095FAA5F5B5FA85F5EC40641C6300B2FBB5
:100D3000F3F001E0024800BF00BF70BD0838024078
:100D40000024F40040787D0138B504460025207861
:100D500000F00100002848D0DE48006800F00C00D8
:100D600004280DD0DB48006800F00C00082811D1E1
:100D7000D848001F006800F48000B0F5800F09D14A
:100D8000D44808380068C0F3404070B3606860BB66
:100D9000012038BD2079CF49891F0870606890B163
:100DA000FFF76EFD054606E0FFF76AFD401B64286D
:100DB00001D90320EDE7C74808380068C0F3404078
:100DC0000028F1D011E0FFF75BFD054606E0FFF7D4
:100DD00057FD401B642801D90320DAE7BD480838D5
:100DE0000068C0F340400028F1D1207800F00200F4
:100DF000022869D1B748006800F00C0058B1B54826
:100E0000006800F00C00082821D1B248001F0068DB
:100E100000F48000D8B9AF4808380068C0F340003B
:100E200020B1E068012801D00120B2E7A9480838C4
:100E3000006820F0F800F82292FAA2F2B2FA82F2E8
:100E4000216991400843A349083908603CE0E06803
:100E500028B30120A0490860FFF712FD054606E00F
:100E6000FFF70EFD401B022801D9032091E79948A6
:100E700008380068C0F340000028F1D095480838D1
:100E8000006820F0F800F82292FAA2F2B2FA82F298
:100E90002169914008438F490839086014E0002017
:100EA0008D490860FFF7ECFC054606E0FFF7E8FC1B
:100EB000401B022801D903206BE7864808380068E8
:100EC000C0F340000028F1D1207800F00800082885
:100ED0002CD16069A8B1012080490860FFF7D0FCDF
:100EE000054606E0FFF7CCFC401B022801D9032091
:100EF0004FE778486C300068C0F340000028F1D01C
:100F000014E0002075490860FFF7BAFC054606E0CA
:100F1000FFF7B6FC401B022801D9032039E76D48D2
:100F20006C300068C0F340000028F1D1207800F058
:100F30000400042857D100BF0020009065483830D5
:100F4000006840F080506349383108600846006806
:100F500000F08050009000BF00BF6148006840F47E
:100F600080705F490860FFF78BFC054606E0FFF7DD
:100F700087FC401B022801D903200AE75848006873
:100F800000F480700028F2D0207A5249683108704D
:100F9000A068A0B1FFF774FC054608E0FFF770FCFD
:100FA000401B41F28831884201D90320F1E64948CB
:100FB00068300068C0F340000028EFD013E0FFF76E
:100FC0005FFC054608E0FFF75BFC401B41F28831FF
:100FD000884201D90320DCE63E4868300068C0F34F
:100FE00040000028EFD1A069F0B33A48006800F053
:100FF0000C00082869D0A069022850D10020364989
:101000000866FFF73DFC054606E0FFF739FC401B8C
:10101000022801D90320BCE62E4808380068C0F336
:1010200040600028F1D1D4E90701084347F6C072B7
:1010300092FAA2F2B2FA82F2616A91400843012266
:10104000A16AC2EB51014FF4403292FAA2F2B2FA15
:1010500082F2914008434FF0706292FAA2F2B2FA23
:1010600082F2E16A914000E031E008431949091F2A
:101070000860012018490866FFF702FC054606E0F3
:10108000FFF7FEFB401B022801D9032081E611482F
:1010900008380068C0F340600028F1D017E0002055
:1010A0000D490866FFF7ECFB054606E0FFF7E8FB95
:1010B000401B022801D903206BE606480838006867
:1010C000C0F340600028F1D101E0012061E600207A
:1010D0005FE600000838024000004742800E4742A9
:1010E00000700040042808D14FF0E021096941F068
:1010F00004014FF0E022116107E04FF0E02109699F
:1011000021F004014FF0E0221161704770B50446F0
:101110002546681EB0F1807F01D301200FE0681ED4
:101120004FF0E02148610F214FF0FF3000F0D8F878
:1011300000204FF0E021886107200861002070BD89
:1011400010B504460CB9012010BDA06900B100E043
:1011500000BF94F8390028B9002084F838002046F0
:1011600000F028F8242084F839002068C06820F4B2
:1011700000502168C860204600F05CF920680069D2
:1011800020F49040216808612068406920F02A001E
:10119000216848612068C06840F400502168C86038
:1011A0000020E063202084F8390084F83A00002011
:1011B000CAE7000010B586B0044618492068884286
:1011C0002AD100BF002000901548006840F00100BF
:1011D000134908600846006800F00100009000BF55
:1011E00000BF4FF4C06001900220029001200390E4
:1011F000022004900720059001A90A48FFF72CFA65
:10120000094800F02EF82520FFF779FB032211464C
:101210002520FFF781FB00BF06B010BD0010014084
:1012200030380240000002402000002000BFFEE7EE
:10123000D0F80021117090F80021521C121AD2B27D
:101240000244C0F8002100F580720CCA9A4207D10E
:1012500090F80421521C121AD2B20244C0F80421A0
:101260007047C0F80001C0F80401704700B587B0AE
:1012700000BF002001901248006840F002001049B1
:1012800008600846006800F00200019000BF00BF3F
:10129000032002900120039004900220059002A9EF
:1012A0000848FFF7D9F9012211460648FFF7E2FA8C
:1012B000012202210348FFF7DDFA07B000BD00005C
:1012C000303802400004024000BFFEE770470000D3
:1012D00002480068C0F30220704700000CED00E0F7
:1012E00010B5002807DA0A07140E054A00F00F03AC
:1012F0001B1FD45403E00A07130E024A135410BDF7
:1013000018ED00E000E400E07047704710B5FFF70B
:10131000BDFA10BD10B592B000BF002000902A4861
:10132000006840F08050284908600846006800F0D6
:101330008050009000BF00BF00BF002000902348F5
:10134000006840F44040214908600846006800F405
:101350004040009000BF00BF01200690079002208F
:101360000C9041050D9119210E914FF4B4710F911C
:10137000022110910421119106A8FFF7E5FCFFF767
:101380001DFB0F20019002200290002003904FF4DB
:10139000A05004904FF480500590052101A8FFF75C
:1013A0005FFBFFF72FFC4FF47A71B0FBF1F420469E
:1013B000FFF7ACFE0420FFF795FE00221146501EF9
:1013C000FFF7AAFA12B010BD40380240007000408A
:1013D0001448006840F47000124908601248006820
:1013E00040F001001049086000200F4908310860F2
:1013F0000D4800680D4908400B4908600C48091D5C
:101400000860081F006820F48020091F0860002081
:1014100005490C3108604FF00060024980390860CE
:101420007047000088ED00E000380240FFFFF6FE44
:10143000103000242DE9F04104460025206805699C
:1014400025F44055E0680543206805612068C568BB
:1014500049F20C6085432169A0680843616908432B
:10146000E169084305432068C5602068456925F4A3
:101470004075A069054320684561E069B0F5004FFB
:101480007ED1C4492068884203D0C349206888427D
:101490005DD1FFF7E9FB00EBC00101EB00106168D3
:1014A0004900B0FBF1F06421B0FBF1F00601FFF759
:1014B000DBFB00EBC00101EB001061684900B0FBF1
:1014C000F1F7FFF7D1FB00EBC00101EB0010616801
:1014D0004900B0FBF1F06421B0FBF1F000EBC0017A
:1014E00001EB0010A7EB8000322101EBC00064216A
:1014F000B0FBF1F000F0F80006EB4006FFF7B4FB9C
:1015000000EBC00101EB001061684900B0FBF1F78E
:10151000FFF7AAFB00EBC00101EB00106168490076
:10152000B0FBF1F06421B0FBF1F000EBC00101EB86
:101530000010A7EB8000322101EBC0006421B0FB5A
:10154000F1F000F0070030442168886020E1FFF7E7
:1015500075FB00EBC00101EB001061684900B0FBB6
:10156000F1F06421B0FBF1F00601FFF767FB00EB3F
:10157000C00101EB001061684900B0FBF1F700E029
:1015800045E0FFF75BFB00EBC00101EB0010616879
:101590004900B0FBF1F06421B0FBF1F000EBC001B9
:1015A00001EB0010A7EB8000322101EBC0006421A9
:1015B000B0FBF1F000F0F80006EB4006FFF73EFB51
:1015C00000EBC00101EB001061684900B0FBF1F7CE
:1015D000FFF734FB00EBC00101EB0010616849002C
:1015E000B0FBF1F06421B0FBF1F000EBC00101EBC6
:1015F0000010A7EB8000322101EBC0006421B0FB9A
:10160000F1F000F00700304421688860C0E06149D3
:101610002068884203D06049206888425CD1FFF787
:1016200023FB00EBC00101EB001061688900B0FBF7
:10163000F1F6FFF719FB00EBC00101EB0010616848
:101640008900B0FBF1F06421B0FBF1F000EBC001C8
:1016500001EB0010A6EB8000322101EB00106421A9
:10166000B0FBF1F000F0F006FFF7FEFA00EBC0016E
:1016700001EB001061688900B0FBF1F06421B0FB60
:10168000F1F006EB0016FFF7EFFA00EBC00101EBFB
:10169000001061688900B0FBF1F7FFF7E5FA00EB95
:1016A000C00101EB001061688900B0FBF1F064211A
:1016B000B0FBF1F000EBC00101EB0010A7EB8000E4
:1016C000322101EB00106421B0FBF1F000F00F00BB
:1016D0003044216888605BE0FFF7B0FA00EBC0019E
:1016E00001EB001061688900B0FBF1F6FFF7A6FA84
:1016F00000EBC00101EB001061688900B0FBF1F064
:101700006421B0FBF1F000EBC00101EB0010A6EB8F
:101710008000322101EB00106421B0FBF1F000F0F9
:10172000F006FFF78BFA00EBC00101EB00106168D7
:101730008900B0FBF1F06421B0FBF1F006EB00167C
:10174000FFF77CFA00EBC00101EB00106168890033
:10175000B0FBF1F7FFF772FA00EBC00101EB0010EC
:1017600061688900B0FBF1F06421B0FBF1F000EB9F
:10177000C00101EB0010A7EB8000322101EB00104B
:101780006421B0FBF1F000F00F0030442168886064
:10179000BDE8F081001001400014014010B5084878
:1017A000006800F0200050B10548C06800F020003B
:1017B00028B103484068C1B20248FFF739FD10BDA7
:1017C000001001402000002000B591B000BF0020B3
:1017D00000901348006840F0100011490860084666
:1017E000006800F01000009000BF00BF0D4801909D
:1017F0004FF4E1300290002103910491059107918B
:101800000C2106914FF40041089101A8FFF798FCC4
:101810000198C06840F020000199C86011B000BD77
:10182000443802400010014000BFFEE7014A02496F
:1018300000F013B80D1900081C00002002E008C8D1
:10184000121F08C1002AFAD170477047002001E03A
:1018500001C1121F002AFBD170472DE9F041164645
:101860000F460446002503E03946B047641C6D1C52
:1018700020780028F8D12846BDE8F08170B50446EC
:10188000002504E04FF47A7000F004F86D1CA542C6
:10189000F8D370BD2DE9F05F2DED048B0746FFF7FF
:1018A000F9F98346FEF70DFD41EC190B9FED150B81
:1018B00053EC102BFEF796FC41EC180BFEF70EFDD7
:1018C000804600264FF0E020D0F814A007FB08F96E
:1018D000856911E04FF0E0208469AC420CD0AC4245
:1018E00002D2281B064403E0AAEB04002844064465
:1018F00025464E4500D300E0ECE700BFBDEC048B6D
:10190000BDE8F09F0000000080842E4100BF054A22
:10191000126802F08002002AF9D0C2B2014B5A606C
:101920007047000000100140FEF7B8FFFFF7F2FC1F
:10193000FFF79CFCFFF748FFFEF7A4FD02A0FFF7AE
:1019400075FF00BFFEE7000068656C6C6F2C7A685D
:1019500079210000000000000102030401020304D9
:101960000607080984190008000000202000000074
:101970003C180008A41900082000002008050000F9
:101980004C1800080024F4000000000000000000D3
:10199000010203040607080900000000000000001F
:0419A0000000000043
:04000005080001AD41
:00000001FF
