:020000040800F2
:10000000800700204D020008EB110008B111000824
:10001000E7110008F3030008E916000800000000DB
:10002000000000000000000000000000B9120008FD
:10003000F703000800000000ED110008BB120008E3
:1000400067020008670200086702000867020008EC
:1000500067020008670200086702000867020008DC
:1000600067020008670200086702000867020008CC
:1000700067020008670200086702000867020008BC
:1000800067020008670200086702000867020008AC
:10009000670200086702000867020008670200089C
:1000A000670200086702000867020008670200088C
:1000B000670200086702000867020008670200087C
:1000C000670200086702000867020008670200086C
:1000D00067020008BD1600086702000867020008F2
:1000E000670200086702000867020008670200084C
:1000F000670200086702000867020008670200083C
:10010000670200086702000867020008670200082B
:10011000670200086702000867020008670200081B
:10012000670200086702000867020008670200080B
:1001300067020008670200086702000867020008FB
:1001400067020008670200086702000867020008EB
:1001500067020008670200086702000867020008DB
:1001600067020008670200086702000867020008CB
:10017000670200086702000867020008000000002C
:1001800067020008670200086702000867020008AB
:10019000670200086702000867020008670200089B
:1001A00067020008670200086702000800F002F812
:1001B00000F03CF80AA090E8000C82448344AAF1C5
:1001C0000107DA4501D100F031F8AFF2090EBAE8C3
:1001D0000F0013F0010F18BFFB1A43F0010318477B
:1001E00084150000A4150000103A24BF78C878C117
:1001F000FAD8520724BF30C830C144BF04680C602D
:10020000704700000023002400250026103A28BF74
:1002100078C1FBD8520728BF30C148BF0B60704778
:100220001FB501F08DFA1FBD10B510BD00F0A8F884
:100230001146FFF7F5FF01F075FA00F0C6F803B4B8
:10024000FFF7F2FF03BC00F0CDF80000094880473B
:1002500009480047FEE7FEE7FEE7FEE7FEE7FEE7A8
:10026000FEE7FEE7FEE7FEE704480549054A064BC0
:100270007047000085130008AD01000880010020D0
:1002800080070020800300208003002053EA020C36
:1002900000F069802DE9F04B4FF00006002B1FBFE6
:1002A000B3FA83F503FA05F424FA05F65E4012BFAB
:1002B0001643B2FA82F502FA05F4C5F120051EBF15
:1002C00022FA05FC44EA0C04203556EA044C4FEAB5
:1002D000144418BF641C4FF000084FF0000990420E
:1002E00071EB030C39D3002919BFB1FA81F701FA78
:1002F00007F6B0FA80F700FA07F6C7F120071EBF2D
:1003000020FA07FC46EA0C062037B6FBF4FCA7EB04
:100310000507103F07F01F0BCBF120060CFA0BFB73
:100320002CFA06F644BFB3460026202FA4BF5E4633
:100330004FF0000B5BEA060C08BF4FF0010B19EB06
:100340000B09ABFB027C48EB0608C01B06FB02CC8A
:100350000BFB03CC71EB0C01C1E70B460246414697
:100360004846BDE8F08B13B54FF000004FF0000198
:10037000AFF30080BDE81C4070477047704770477E
:10038000754600F02BF8AE4605006946534620F04E
:100390000700854618B020B5FFF766FFBDE820408E
:1003A0004FF000064FF000074FF000084FF0000B31
:1003B00021F00701AC46ACE8C009ACE8C009ACE8E4
:1003C000C009ACE8C0098D46704710B50446AFF3CC
:1003D00000802046BDE81040FFF731BF004870475D
:1003E0001C01002001491820ABBEFEE726000200D8
:1003F000704700BFFEE77047F8B502460B46002580
:10040000002400200021E6E0012606FA01F51E681E
:1004100006EA0504AC4273D15E68012E08D05E681E
:10042000022E05D05E68112E02D05E68122E13D106
:1004300090684F000326BE40B0434F00DE68BE40C8
:1004400030439060506801268E40B0431E79C6F359
:1004500000168E4030435060D0684F000326BE40E7
:10046000B0434F009E68BE403043D0605E68022EAD
:1004700002D05E68122E13D1CF0802F1200656F882
:1004800027004E07F70E0F26BE40B0434F07FF0E62
:100490001E69BE403043CF0802F1200646F827000F
:1004A00010684F000326BE40B0431E7906F00306D5
:1004B0004F00BE40304310605E6806F08056B6F1D3
:1004C000805FA8D100BF00260096454E366846F4EE
:1004D0008046434F3E603E46366806F480460096AE
:1004E00000BF00BF3F4E8F0856F827008E07370F1A
:1004F0000F26BE40B0433C4EB24202D100262EE051
:1005000068E03A4EB24201D1012628E0384EB242AC
:1005100001D1022623E0374EB24201D103261EE06C
:10052000354EB24201D1042619E0344EB24201D117
:10053000052614E0324EB24201D106260FE0314EBC
:10054000B24201D107260AE02F4EB24201D108265D
:1005500005E02E4EB24201D1092600E00A268F079F
:100560003F0FBE4030431F4E8F0846F82700284EED
:100570003068A0435E6806F48036B6F5803F00D14F
:100580002043234E3060361D3068A0435E6806F479
:100590000036B6F5003F00D120431D4E361D3060B9
:1005A000361D3068A0435E6806F48016B6F5801FDD
:1005B00000D12043164E08363060361D3068A04307
:1005C0005E6806F40016B6F5001F00D12043104EF9
:1005D0000C363060491C1029FFF416AFF8BD00003E
:1005E0004438024008380140000002400004024044
:1005F00000080240000C02400010024000140240BB
:1006000000180240001C024000200240002402406A
:10061000003C0140014800687047000004000020D1
:100620000348006803490978084401490860704795
:10063000040000200C00002010B50D48006840F4B4
:1006400000700B4908600846006840F4806008604C
:100650000846006840F480700860032000F074F8D9
:100660000F2000F007F800F02BF8002010BD00006C
:10067000003C024070B504460E4800784FF47A7191
:10068000B1FBF0F00C490968B1FBF0F5284600F029
:100690002DFC08B1012070BD102C07D2002221468C
:1006A000501E00F012F80548046001E00120F2E756
:1006B0000020F0E70C0000201000002008000020BF
:1006C00010B5052000F040F810BD2DE9F05F804620
:1006D0000D461646002701F009F8074639462A4616
:1006E000334601F00700C0F1070ABAF1040F02D93E
:1006F0004FF0040A01E0C0F1070AD14600F1040AF4
:10070000BAF1070F02D24FF0000A01E0A0F1030A8C
:10071000D4464FF0010A0AFA09FAAAF1010A0AEAD4
:10072000020A0AFA0CFA4FF0010B0BFA0CFBABF1C0
:10073000010B0BEA030B4AEA0B042146404600F08A
:10074000DDFFBDE8F09F000000BF00F00702064B90
:1007500019684FF6FF031940044B0B4343EA02218B
:10076000014B196000BF70470CED00E00000FA0576
:1007700038B5002400BF002000901D48006840F0FC
:1007800080501B4908600846006800F080500090C7
:1007900000BF00BF012017490864FFF73BFF044674
:1007A00007E0FFF737FF001BB0F57A7F01D9032080
:1007B00038BD1148406800F48030B0F5803FF0D17A
:1007C00001200C494864FFF725FF044607E0FFF7C6
:1007D00021FF001BB0F57A7F01D90320E8E7064826
:1007E000406800F40030B0F5003FF0D10020DFE7B2
:1007F0004038024000000E420070004070B50446D0
:100800000D460CB9012070BD5848006800F00F007B
:10081000A84209D255490D700846006800F00F0043
:10082000A84201D00120EEE7207800F00200022863
:100830001DD1207800F00400042805D14C48006840
:1008400040F4E0504A490860207800F00800082889
:1008500005D14748006840F4604045490860444875
:10086000006820F0F000A168084341490860207842
:1008700000F00100A8B36068012807D13C4808389F
:100880000068C0F34040B8B90120BCE760680228A6
:1008900002D06068032807D1354808380068C0F3E3
:1008A000406048B90120AEE7314808380068C0F31D
:1008B000400008B90120A6E72D48006820F0030099
:1008C000616808432A490860FFF7A4FE064609E06C
:1008D000FFF7A0FE801B41F28831884202D9032035
:1008E00091E707E02248006800F00C006168B0EB77
:1008F000810FEDD11D48006800F00F00A84209D912
:100900001A490D700846006800F00F00A84201D097
:10091000012078E7207800F00400042807D114486B
:10092000006820F4E050E16808431149086020782D
:1009300000F00800082808D10D48006820F4604045
:10094000216940EAC1000A49086000F01FF808491F
:100950000968C1F30311074A515CC84006490860A1
:1009600006480068FFF786FE00204CE7003C024086
:10097000083802404A170008100000200800002034
:100980000148006870470000100000202DE9F04782
:10099000002400250026A1462548006800F00C0030
:1009A00020B1042805D008283AD105E0DFF884906A
:1009B00039E0DFF8849036E01D48001F006800F041
:1009C0003F041B48001F006800F4800078B11A48FB
:1009D0001749091F0968C1F38811A0FB017001467E
:1009E000224600233846FFF751FC05460EE0114829
:1009F0000F49091F0968C1F38811A0FB0170014666
:100A0000224600233846FFF741FC05460848001FF0
:100A10000068C0F30140401C4600B5FBF6F902E057
:100A2000DFF8109000BF00BF4846BDE8F087000027
:100A3000083802400024F40040787D01F8B50446EF
:100A40000CB90120F8BD207800F00100002874D016
:100A5000F948006800F00C0004280DD0F648006842
:100A600000F00C00082813D1F348001F006800F4C0
:100A70008000B0F5800F0BD1EF4808380068C0F354
:100A80004040002859D06068002856D10120D9E79D
:100A900000BF6068B0F5803F08D1E74808380068BB
:100AA00040F48030E449083908601EE06068B0F521
:100AB000A02F0DD1E0480838006840F48020DE49BE
:100AC000083908600846006840F4803008600CE08F
:100AD000D9480838006820F48030D74908390860C0
:100AE0000846006820F48020086000BF606890B16C
:100AF000FFF790FD054606E0FFF78CFD401B6428DC
:100B000001D903209EE7CC4808380068C0F3404074
:100B10000028F1D011E0FFF77DFD054606E0FFF764
:100B200079FD401B642801D903208BE7C2480838AF
:100B30000068C0F340400028F1D1207800F00200A6
:100B400002285FD1BC48006800F00C0058B1BA48D8
:100B5000006800F00C0008281CD1B748001F00688E
:100B600000F48000B0B9B44808380068C0F3400011
:100B700020B1E068012801D0012063E7AE480838C1
:100B8000006820F0F800216940EAC100AA4908394C
:100B9000086037E0E06800B30120A8490860FFF76B
:100BA00039FD054606E0FFF735FD401B022801D957
:100BB000032047E7A04808380068C0F34000002839
:100BC000F1D09D480838006820F0F800216940EA1B
:100BD000C10099490839086014E00020974908606D
:100BE000FFF718FD054606E0FFF714FD401B02283D
:100BF00001D9032026E7904808380068C0F3400078
:100C00000028F1D1207800F0080008282CD1606974
:100C1000A8B101208A490860FFF7FCFC054606E000
:100C2000FFF7F8FC401B022801D903200AE782489D
:100C30006C300068C0F340000028F1D014E00020C0
:100C40007F490860FFF7E6FC054606E0FFF7E2FC97
:100C5000401B022801D90320F4E677486C30006875
:100C6000C0F340000028F1D1207800F004000428EF
:100C700070D1002770483830006800F0805090B97B
:100C800000BF002000906C483830006840F0805071
:100C90006949383108600846006800F080500090CB
:100CA00000BF00BF01276748006800F48070B0B93A
:100CB0006448006840F4807062490860FFF7AAFC4D
:100CC000054606E0FFF7A6FC401B022801D90320D9
:100CD000B8E65C48006800F480700028F2D000BFDD
:100CE000A068012808D154486830006840F001002D
:100CF0005149683108601DE0A06805280DD14E48B3
:100D00006830006840F004004B49683108600846CC
:100D1000006840F0010008600CE047486830006857
:100D200020F001004449683108600846006820F05E
:100D30000400086000BFA068A8B1FFF76BFC05467F
:100D400009E0FFF767FC401B41F28831884202D975
:100D5000032077E626E0384868300068C0F340009A
:100D60000028EED013E0FFF755FC054608E0FFF73A
:100D700051FC401B41F28831884201D9032061E6D1
:100D80002D4868300068C0F340000028EFD1012FE3
:100D900007D129483830006820F080502649383182
:100DA000086000BFA069002845D02348006800F013
:100DB0000C0008285DD0A069022845D100201F49F9
:100DC0000866FFF727FC054606E0FFF723FC401BFB
:100DD000022801D9032035E6174808380068C0F317
:100DE00040600028F1D1D4E907010843616A40EA74
:100DF00081110122A06AC2EB500041EA00412C207F
:100E0000005D41EA00600C49091F086001200B49A0
:100E10000866FFF7FFFB054606E0FFF7FBFB401BFC
:100E2000022801D903200DE6034808380068C0F302
:100E300040600028F1D03FE00838024000004742FF
:100E4000800E47420070004000201C490866FFF7F2
:100E5000E1FB054606E0FFF7DDFB401B022801D958
:100E60000320EFE516480068C0F340600028F2D187
:100E700022E0A069012800D1E4E51148001D0668C0
:100E800006F48001E069814214D106F03F01206A36
:100E900081420FD147F6C0703040616A884209D163
:100EA00006F44031A06A814204D106F07061E06A24
:100EB000814201D00120C5E50020C3E50000474282
:100EC00000380240042808D14FF0E021096941F0C0
:100ED00004014FF0E022116107E04FF0E0210969C1
:100EE00021F004014FF0E0221161704770B5044613
:100EF0002546681EB0F1807F01D301200FE0681EF7
:100F00004FF0E02148610F214FF0FF3000F0F6FB79
:100F100000204FF0E021886107200861002070BDAB
:100F200010B50346002200BF93F83C00012801D110
:100F3000022010BD012083F83C0000BF22F0FF001A
:100F4000CC6840EA040222F440708C6840EA040253
:100F500022F480604C6840EA040222F400600C68CD
:100F600040EA040222F480500C6940EA040222F4B0
:100F700000504C6940EA040222F48040CC6940EA07
:100F800004021868426400BF002083F83C0000BFE0
:100F900000BFCEE770B504460D46042229462068FE
:100FA00000F09FFA2068406C40F4004021684864DB
:100FB0002068806800F00706062E05D020680068CB
:100FC00040F0010021680860002070BD70B5044643
:100FD0000D46164600BF94F83C00012801D10220BE
:100FE00070BD012084F83C0000BF022084F83D0061
:100FF00036B1042E1BD0082E31D00C2E5ED145E028
:101000002946206800F07EFA2068806940F00800D8
:10101000216888612068806920F004002168886167
:1010200020688069296908432168886147E029466A
:10103000206800F09FFA2068806940F40060216811
:1010400088612068806920F4806021688861206858
:101050008069296940EA0120216888612FE02946DA
:10106000206800F0C5FA2068C06940F008002168D7
:10107000C8612068C06920F004002168C861206848
:10108000C069296908432168C86118E029462068B9
:1010900000F0EAFA2068C06940F400602168C86185
:1010A0002068C06920F480602168C8612068C06938
:1010B000296940EA01202168C86100E000BF00BF43
:1010C000012084F83D0000BF002084F83C0000BFF0
:1010D00000BF85E710B504460CB9012010BD94F897
:1010E0003D0028B9002084F83C00204600F00CF8B0
:1010F000022084F83D00211D206800F075F90120D0
:1011000084F83D000020E9E710B586B0044600BF32
:10111000002000900E48006840F001000C49086073
:101120000846006800F00100009000BF00BF4FF4C7
:10113000E0700190022003900320049002200290AE
:101140000120059001A90348FFF756F906B010BD2C
:10115000303802400000024070B504460E460122BD
:101160003146206800F0ACF90F492068884203D06E
:101170000E492068884201D1012000E0002028B1FA
:101180002068406C40F40040216848642068806812
:1011900000F00705062D05D02068006840F001002A
:1011A00021680860002070BD00000140000401407B
:1011B00000BFFEE7D0F80021117090F80021521C0A
:1011C000121AD2B20244C0F8002100F580720CCA93
:1011D0009A4207D190F80421521C121AD2B202444A
:1011E000C0F80421704700BFFEE770477047000059
:1011F00000B5A1B000BF002001902A48006840F06F
:101200000100284908600846006800F001000190CC
:1012100000BF00BF2448119001208DF8600000201D
:101220008DF881008DF88000129044F24F61149186
:101230004FF48041179100211591169111A8FFF7E5
:1012400049FF60200A9000200C900D900F901090A4
:1012500042F228300B9000200E9000220AA911A81B
:10126000FFF7B4FE002002904FF48060039000204E
:10127000049005904FF480500690400007900020A5
:1012800008904FF48040099002A911A8FFF748FE8A
:10129000002111A8FFF760FF002111A8FFF77AFED7
:1012A00021B000BD443802400000014001494863BC
:1012B0007047000000000140704710B5FFF7B0F91B
:1012C00010BD000010B592B000BF002000902B4868
:1012D000006840F08050294908600846006800F026
:1012E0008050009000BF00BF00BF00200090244845
:1012F000006840F44040224908600846006800F455
:101300004040009000BF00BF0120069000040790FD
:1013100002200C9041050D9119210E914FF4B471EA
:101320000F91022110910421119106A8FFF786FB6D
:10133000FFF71EFA0F200190022002900020039078
:101340004FF4A05004904FF480500590052101A85F
:10135000FFF754FAFFF714FB4FF47A71B0FBF1F486
:101360002046FFF7C3FD0420FFF7ACFD0022114625
:10137000501EFFF7AAF912B010BD0000403802401D
:10138000007000401448006840F470001249086082
:101390001248006840F001001049086000200F4921
:1013A000083108600D4800680D4908400B49086085
:1013B0000C48091D0860081F006820F48020091FE0
:1013C0000860002005490C3108604FF000600249B8
:1013D000803908607047000088ED00E00038024066
:1013E000FFFFF6FE1030002410B50268294B98422A
:1013F0000ED0B0F1804F0BD0274B984208D0274B2E
:10140000984205D0264B984202D0264B984203D1F1
:1014100022F070024B681A431E4B984220D0B0F164
:10142000804F1DD01C4B98421AD01C4B984217D0AD
:101430001B4B984214D01B4B984211D01A4B984228
:101440000ED01A4B98420BD0194B984208D0194B2A
:10145000984205D0184B984202D0184B984203D1BD
:1014600022F44072CB681A4322F080034C6943EAAD
:10147000040202608B68C3620B688362054B98426A
:1014800002D0084B984201D10B69036301234361E9
:1014900010BD0000000001400004004000080040B2
:1014A000000C0040000401400040014000440140A5
:1014B0000048014000180040001C0040002000408F
:1014C00030B501F01F05012404FA05F3046A9C43BA
:1014D0000462046A01F01F0502FA05F52C43046258
:1014E00030BD30B501F01F05042404FA05F3046A89
:1014F0009C430462046A01F01F0502FA05F52C43BF
:10150000046230BD30B5056A25F001050562026A46
:101510004368846924F0700424F003040D682C43AC
:1015200022F002028D682A43104DA84200D103E048
:101530000F4DA84206D100BF22F00802CD682A4311
:1015400022F00402094DA84202D0094DA84207D159
:1015500023F4807323F400734D692B438D692B436F
:10156000436084614D684563026230BD0000014004
:101570000004014030B5056A25F010050562026AD5
:101580004368846924F4E04424F440740D6844EA18
:10159000052422F020028D6842EA0512124DA8426D
:1015A00000D103E0114DA84207D100BF22F0800214
:1015B000CD6842EA051222F040020B4DA84202D04B
:1015C0000A4DA84209D123F4806323F400634D69D6
:1015D00043EA85038D6943EA8503436084614D686E
:1015E0008563026230BD000000000140000401403C
:1015F00030B5056A25F480750562026A4368C469DE
:1016000024F0700424F003040D682C4322F40072CB
:101610008D6842EA0522124DA84200D103E0114D27
:10162000A84207D100BF22F40062CD6842EA052239
:1016300022F480620A4DA84202D00A4DA84209D184
:1016400023F4805323F400534D6943EA05138D6955
:1016500043EA05134360C4614D68C563026230BD4F
:10166000000001400004014030B5056A25F48055B2
:101670000562036A4468C26922F4E04222F44072BF
:101680000D6842EA052223F400538D6843EA0533CE
:10169000084DA84202D0084DA84204D124F4804449
:1016A0004D6944EA85144460C2614D680564036273
:1016B00030BD0000000001400004014010B50848A2
:1016C000006800F0200050B10548C06800F020001C
:1016D00028B103484068C1B20248FFF76BFD10BD56
:1016E000001001401400002000BFFEE7024800681F
:1016F000C0F30220704700000CED00E010B5002898
:1017000004DB0A07130E054A135406E00A07140EF9
:10171000034A00F00F031B1FD45410BD00E400E087
:1017200018ED00E0FEF788FFFFF7CCFDFFF760FD46
:1017300003E002480088FFF7B9FDFAE70000002047
:101740004FF04070E1EE100A70470000000000000A
:10175000000001020304060708090000000001025E
:10176000030400008417000800000020140000009B
:10177000E801000898170008140000206C0700001A
:1017800004020008282300000000000010000000F0
:08179000010000000024F40038
:04000005080001AD41
:00000001FF
