:020000040800F2
:10000000280900204D020008D11600088D160008AE
:10001000CD16000843040008FD220008000000007F
:10002000000000000000000000000000951700081C
:100030001D05000800000000D316000897170008EF
:1000400067020008670200086702000867020008EC
:1000500067020008670200086702000867020008DC
:1000600067020008670200086702000867020008CC
:1000700067020008670200086702000867020008BC
:1000800067020008670200086702000867020008AC
:10009000670200086702000867020008670200089C
:1000A000670200086702000867020008670200088C
:1000B000670200086702000867020008670200087C
:1000C000670200086702000867020008670200086C
:1000D0006702000871220008670200086702000832
:1000E000670200086702000867020008670200084C
:1000F0002D19000867020008C518000867020008EB
:10010000670200086702000867020008670200082B
:10011000670200086702000867020008670200081B
:10012000670200086702000867020008670200080B
:1001300067020008670200086702000867020008FB
:1001400067020008670200086702000867020008EB
:1001500067020008670200086702000867020008DB
:1001600067020008670200086702000867020008CB
:10017000670200086702000867020008000000002C
:1001800067020008670200086702000867020008AB
:10019000670200086702000867020008670200089B
:1001A00067020008670200086702000800F002F812
:1001B00000F03CF80AA090E8000C82448344AAF1C5
:1001C0000107DA4501D100F031F8AFF2090EBAE8C3
:1001D0000F0013F0010F18BFFB1A43F0010318477B
:1001E0007C2500009C250000103A24BF78C878C107
:1001F000FAD8520724BF30C830C144BF04680C602D
:10020000704700000023002400250026103A28BF74
:1002100078C1FBD8520728BF30C148BF0B60704778
:100220001FB502F08AFA1FBD10B510BD00F0CFF85F
:100230001146FFF7F5FF02F07FF800F0EDF803B488
:10024000FFF7F2FF03BC00F0F5F800000948804713
:1002500009480047FEE7FEE7FEE7FEE7FEE7FEE7A8
:10026000FEE7FEE7FEE7FEE704480549054A064BC0
:100270007047000061180008AD0100082803002045
:1002800028090020280500202805002053EA020C38
:1002900000F069802DE9F04B4FF00006002B1FBFE6
:1002A000B3FA83F503FA05F424FA05F65E4012BFAB
:1002B0001643B2FA82F502FA05F4C5F120051EBF15
:1002C00022FA05FC44EA0C04203556EA044C4FEAB5
:1002D000144418BF641C4FF000084FF0000990420E
:1002E00071EB030C39D3002919BFB1FA81F701FA78
:1002F00007F6B0FA80F700FA07F6C7F120071EBF2D
:1003000020FA07FC46EA0C062037B6FBF4FCA7EB04
:100310000507103F07F01F0BCBF120060CFA0BFB73
:100320002CFA06F644BFB3460026202FA4BF5E4633
:100330004FF0000B5BEA060C08BF4FF0010B19EB06
:100340000B09ABFB027C48EB0608C01B06FB02CC8A
:100350000BFB03CC71EB0C01C1E70B460246414697
:100360004846BDE8F08B13B54FF000004FF0000198
:10037000AFF30080BDE81C4070474FF0000200B5AD
:10038000134694469646203922BFA0E80C50A0E8B8
:100390000C50B1F12001BFF4F7AF090728BFA0E866
:1003A0000C5048BF0CC05DF804EB890028BF40F832
:1003B000042B08BF704748BF20F8022B11F0804F74
:1003C00018BF00F8012B704770477047704775469B
:1003D00000F02CF8AE4605006946534620F00700B1
:1003E000854618B020B5FFF73FFFBDE820404FF02D
:1003F00000064FF000074FF000084FF0000B21F00F
:100400000701AC46ACE8C009ACE8C009ACE8C009DB
:10041000ACE8C0098D46704710B50446AFF30080C4
:100420002046BDE81040FFF70ABF000000487047B3
:10043000C802002001491820ABBEFEE726000200DA
:10044000704700BFFEE7000000B59BB000BF002072
:1004500001903048006840F002002E4908600846CC
:10046000006800F00200019000BF00BF40210BA80F
:10047000FFF783FF28480B9000200C904FF6FF7188
:100480000E91002110914FF48041119100210F91A4
:100490000D910BA800F0CEFE002007900890099067
:1004A0000A900A900990079001200890002207A95D
:1004B0000BA800F04FFE022007900890042207A925
:1004C0000BA800F047FE142102A8FFF756FF0420F6
:1004D0000290002006900590502003900020049088
:1004E00002A90BA801F026F800210BA800F0F4FEE9
:1004F00004210BA800F0F0FE0B98C06840F001004A
:100500000B99C8600B98006840F004000B990860D4
:100510001BB000BD44380240000401407047000099
:10052000F8B502460B460025002400200021E6E035
:10053000012606FA01F51E6806EA0504AC4273D1ED
:100540005E68012E08D05E68022E05D05E68112E0E
:1005500002D05E68122E13D190684F000326BE4071
:10056000B0434F00DE68BE403043906050680126C3
:100570008E40B0431E79C6F300168E403043506063
:10058000D0684F000326BE40B0434F009E68BE4077
:100590003043D0605E68022E02D05E68122E13D106
:1005A000CF0802F1200656F827004E07F70E0F2657
:1005B000BE40B0434F07FF0E1E69BE403043CF0818
:1005C00002F1200646F8270010684F000326BE40BF
:1005D000B0431E7906F003064F00BE403043106062
:1005E0005E6806F08056B6F1805FA8D100BF002695
:1005F0000096454E366846F48046434F3E603E4680
:10060000366806F48046009600BF00BF3F4E8F0854
:1006100056F827008E07370F0F26BE40B0433C4EDA
:10062000B24202D100262EE068E03A4EB24201D139
:10063000012628E0384EB24201D1022623E0374E8F
:10064000B24201D103261EE0354EB24201D104264A
:1006500019E0344EB24201D1052614E0324EB242C6
:1006600001D106260FE0314EB24201D107260AE041
:100670002F4EB24201D1082605E02E4EB24201D1E2
:10068000092600E00A268F073F0FBE4030431F4E69
:100690008F0846F82700284E3068A0435E6806F4AD
:1006A0008036B6F5803F00D12043234E3060361DA2
:1006B0003068A0435E6806F40036B6F5003F00D10E
:1006C00020431D4E361D3060361D3068A0435E68E5
:1006D00006F48016B6F5801F00D12043164E08366A
:1006E0003060361D3068A0435E6806F40016B6F52B
:1006F000001F00D12043104E0C363060491C1029D9
:10070000FFF416AFF8BD000044380240083801403D
:10071000000002400004024000080240000C0240B9
:10072000001002400014024000180240001C024069
:100730000020024000240240003C014001480068C3
:10074000704700001C000020034800680349097836
:1007500008440149086070471C0000202400002064
:1007600010B50D48006840F400700B490860084659
:10077000006840F4806008600846006840F48070BB
:100780000860032000F084F80F2000F007F800F064
:100790002BF8002010BD0000003C024070B504465C
:1007A0000E4800784FF47A71B1FBF0F00C490968FB
:1007B000B1FBF0F5284600F05DFC08B1012070BDEA
:1007C000102C07D200222146501E00F022F80548C6
:1007D000046001E00120F2E70020F0E7240000209F
:1007E000280000202000002010B5052000F050F85F
:1007F00010BD01460846002809DB00F01F03012256
:100800009A4043099B0003F1E023C3F8002100BF95
:1008100070472DE9F05F80460D461646002701F02F
:100820006FFD074639462A46334601F00700C0F1FE
:10083000070ABAF1040F02D94FF0040A01E0C0F12F
:10084000070AD14600F1040ABAF1070F02D24FF0AD
:10085000000A01E0A0F1030AD4464FF0010A0AFAA7
:1008600009FAAAF1010A0AEA020A0AFA0CFA4FF096
:10087000010B0BFA0CFBABF1010B0BEA030B4AEA81
:100880000B042146404601F043FDBDE8F09F000007
:1008900000BF00F00702064B19684FF6FF0319402E
:1008A000044B0B4343EA0221014B196000BF704720
:1008B0000CED00E00000FA0538B5002400BF002070
:1008C00000901D48006840F080501B4908600846B1
:1008D000006800F08050009000BF00BF0120174961
:1008E0000864FFF72BFF044607E0FFF727FF001B14
:1008F000B0F57A7F01D9032038BD1148406800F473
:100900008030B0F5803FF0D101200C494864FFF7FA
:1009100015FF044607E0FFF711FF001BB0F57A7FD3
:1009200001D90320E8E70648406800F40030B0F53C
:10093000003FF0D10020DFE74038024000000E42C7
:100940000070004070B504460D460CB9012070BD22
:100950005848006800F00F00A84209D255490D70B0
:100960000846006800F00F00A84201D00120EEE721
:10097000207800F0020002281DD1207800F0040049
:10098000042805D14C48006840F4E0504A4908600A
:10099000207800F00800082805D14748006840F496
:1009A0006040454908604448006820F0F000A168B4
:1009B000084341490860207800F00100A8B360684E
:1009C000012807D13C4808380068C0F34040B8B956
:1009D0000120BCE76068022802D06068032807D1C4
:1009E000354808380068C0F3406048B90120AEE7D8
:1009F000314808380068C0F3400008B90120A6E774
:100A00002D48006820F00300616808432A49086007
:100A1000FFF794FE064609E0FFF790FE801B41F2C7
:100A20008831884202D9032091E707E02248006814
:100A300000F00C006168B0EB810FEDD11D4800683B
:100A400000F00F00A84209D91A490D700846006845
:100A500000F00F00A84201D0012078E7207800F0D4
:100A60000400042807D11448006820F4E050E1682D
:100A7000084311490860207800F00800082808D1D0
:100A80000D48006820F46040216940EAC1000A492D
:100A9000086000F03FF808490968C1F30311074AEC
:100AA000515CC8400649086006480068FFF776FEBA
:100AB00000204CE7003C0240083802404427000870
:100AC0002800002020000020014800687047000036
:100AD0002800002000B5FFF7F7FF04490968C1F3BB
:100AE0008221034A515CC84000BD00000838024022
:100AF0005427000800B5FFF7E7FF04490968C1F370
:100B00004231034A515CC84000BD00000838024031
:100B1000542700082DE9F047002400250026A146AF
:100B20002548006800F00C0020B1042805D00828F2
:100B30003AD105E0DFF8849039E0DFF8849036E0C0
:100B40001D48001F006800F03F041B48001F00689C
:100B500000F4800078B11A481749091F0968C1F3E9
:100B60008811A0FB01700146224600233846FFF79A
:100B70008DFB05460EE011480F49091F0968C1F3B6
:100B80008811A0FB01700146224600233846FFF77A
:100B90007DFB05460848001F0068C0F30140401C6B
:100BA0004600B5FBF6F902E0DFF8109000BF00BF89
:100BB0004846BDE8F0870000083802400024F400F1
:100BC00040787D01F8B504460CB90120F8BD2078C5
:100BD00000F00100002874D0F948006800F00C0013
:100BE00004280DD0F648006800F00C00082813D146
:100BF000F348001F006800F48000B0F5800F0BD1AF
:100C0000EF4808380068C0F34040002859D06068B9
:100C1000002856D10120D9E700BF6068B0F5803FB9
:100C200008D1E7480838006840F48030E4490839C2
:100C300008601EE06068B0F5A02F0DD1E0480838CC
:100C4000006840F48020DE490839086008460068E2
:100C500040F4803008600CE0D9480838006820F47F
:100C60008030D749083908600846006820F48020A1
:100C7000086000BF606890B1FFF760FD054606E0C0
:100C8000FFF75CFD401B642801D903209EE7CC4898
:100C900008380068C0F340400028F1D011E0FFF7A9
:100CA0004DFD054606E0FFF749FD401B642801D9CC
:100CB00003208BE7C24808380068C0F34040002892
:100CC000F1D1207800F0020002285FD1BC48006812
:100CD00000F00C0058B1BA48006800F00C00082879
:100CE0001CD1B748001F006800F48000B0B9B448B8
:100CF00008380068C0F3400020B1E068012801D046
:100D0000012063E7AE480838006820F0F800216948
:100D100040EAC100AA490839086037E0E06800B33A
:100D20000120A8490860FFF709FD054606E0FFF726
:100D300005FD401B022801D9032047E7A0480838D9
:100D40000068C0F340000028F1D09D4808380068D2
:100D500020F0F800216940EAC1009949083908608B
:100D600014E0002097490860FFF7E8FC054606E01C
:100D7000FFF7E4FC401B022801D9032026E7904836
:100D800008380068C0F340000028F1D1207800F056
:100D9000080008282CD16069A8B101208A490860A0
:100DA000FFF7CCFC054606E0FFF7C8FC401B022815
:100DB00001D903200AE782486C300068C0F3400084
:100DC0000028F1D014E000207F490860FFF7B6FC4E
:100DD000054606E0FFF7B2FC401B022801D90320BC
:100DE000F4E677486C300068C0F340000028F1D189
:100DF000207800F00400042870D1002770483830B3
:100E0000006800F0805090B900BF002000906C484E
:100E10003830006840F08050694938310860084631
:100E2000006800F08050009000BF00BF01276748B5
:100E3000006800F48070B0B96448006840F48070C5
:100E400062490860FFF77AFC054606E0FFF776FC8A
:100E5000401B022801D90320B8E65C48006800F472
:100E600080700028F2D000BFA068012808D1544843
:100E70006830006840F001005149683108601DE0A9
:100E8000A06805280DD14E486830006840F0040085
:100E90004B49683108600846006840F0010008606E
:100EA0000CE047486830006820F001004449683190
:100EB00008600846006820F00400086000BFA068D1
:100EC000A8B1FFF73BFC054609E0FFF737FC401BE4
:100ED00041F28831884202D9032077E626E038487B
:100EE00068300068C0F340000028EED013E0FFF740
:100EF00025FC054608E0FFF721FC401B41F2883144
:100F0000884201D9032061E62D4868300068C0F3AB
:100F100040000028EFD1012F07D129483830006860
:100F200020F0805026493831086000BFA0690028B1
:100F300045D02348006800F00C0008285DD0A06967
:100F4000022845D100201F490866FFF7F7FB054638
:100F500006E0FFF7F3FB401B022801D9032035E62A
:100F6000174808380068C0F340600028F1D1D4E980
:100F700007010843616A40EA81110122A06AC2EBBD
:100F8000500041EA00412C20005D41EA00600C491C
:100F9000091F086001200B490866FFF7CFFB0546D3
:100FA00006E0FFF7CBFB401B022801D903200DE62A
:100FB000034808380068C0F340600028F1D03FE0E3
:100FC0000838024000004742800E4742007000404F
:100FD00000201C490866FFF7B1FB054606E0FFF755
:100FE000ADFB401B022801D90320EFE5164800683D
:100FF000C0F340600028F2D122E0A069012800D1AE
:10100000E4E51148001D066806F48001E0698142AC
:1010100014D106F03F01206A81420FD147F6C0701B
:101020003040616A884209D106F44031A06A8142A9
:1010300004D106F07061E06A814201D00120C5E56B
:101040000020C3E50000474200380240042808D1D0
:101050004FF0E021096941F004014FF0E0221161F5
:1010600007E04FF0E021096921F004014FF0E02290
:101070001161704770B504462546681EB0F1807F47
:1010800001D301200FE0681E4FF0E02148610F21DD
:101090004FF0FF3001F03CF900204FF0E021886173
:1010A00007200861002070BD10B50346002200BF74
:1010B00093F83C00012801D1022010BD012083F8E3
:1010C0003C0000BF22F0FF00CC6840EA040222F49A
:1010D00040708C6840EA040222F480604C6840EA68
:1010E000040222F400600C6840EA040222F48050FA
:1010F0000C6940EA040222F400504C6940EA040200
:1011000022F48040CC6940EA04021868426400BFBF
:10111000002083F83C0000BF00BFCEE770B5044656
:101120000D4604222946206800F099FC2068406C96
:1011300040F40040216848642068806800F0070699
:10114000062E05D02068006840F001002168086084
:10115000002070BD2DE9F04104460D46164600BF43
:1011600094F83C00012802D10220BDE8F081012062
:1011700084F83C0000BF022084F83D0096B9EB687B
:10118000D5E90012206800F0CBFD2068806920F0CE
:101190000C002168886120688069A968084321687B
:1011A00088613DE0042E13D1EB68D5E90012206878
:1011B00000F012FE2068806920F440602168886198
:1011C00020688069A96840EA01202168886127E0D9
:1011D000082E12D1EB68D5E90012206800F019FE44
:1011E0002068C06920F00C002168C8612068C069CF
:1011F000A96808432168C86112E0EB68D5E90012CC
:10120000206800F022FE2068C06920F44060216858
:10121000C8612068C069A96840EA01202168C861E6
:10122000012084F83D0000BF002084F83C0000BF8E
:1012300000BF9AE710B504460CB9012010BD94F820
:101240003D0028B9002084F83C00204600F00CF84E
:10125000022084F83D00211D206800F083FB01205E
:1012600084F83D000020E9E710B586B0044600BFD1
:10127000002000901648006840F0040014490860FF
:101280000846006800F00400009000BF00BF402046
:10129000019002200390032004900220029003207A
:1012A000059001A90B48FFF73BF9012211462C20BC
:1012B000FFF7AFFA2C20FFF79CFA002201212E2025
:1012C000FFF7A7FA2E20FFF794FA06B010BD000032
:1012D000303802400008024070B504460D4635B172
:1012E000042D0BD0082D10D00C2D1CD114E020683B
:1012F000C06840F002002168C86015E02068C0683E
:1013000040F004002168C8600EE02068C06840F02A
:1013100008002168C86007E02068C06840F010003D
:101320002168C86000E000BF00BF01222946206894
:1013300000F084FB2068806800F00706062E05D0C8
:101340002068006840F0010021680860002070BD3E
:1013500070B504460D46164600BF94F83C000128BF
:1013600001D1022070BD012084F83C0000BF0220A2
:1013700084F83D0036B1042E1BD0082E31D00C2E3F
:101380005ED145E02946206800F086FB2068806930
:1013900040F00800216888612068806920F004001E
:1013A000216888612068806929690843216888610B
:1013B00047E02946206800F0A7FB2068806940F4D8
:1013C0000060216888612068806920F4806021685D
:1013D000886120688069296940EA01202168886164
:1013E0002FE02946206800F0CDFB2068C06940F05E
:1013F00008002168C8612068C06920F004002168E5
:10140000C8612068C069296908432168C86118E07B
:101410002946206800F0F2FB2068C06940F40060B3
:101420002168C8612068C06920F480602168C861B3
:101430002068C069296940EA01202168C86100E08C
:1014400000BF00BF012084F83D0000BF002084F8E9
:101450003C0000BF00BF85E710B504460CB9012071
:1014600010BD94F83D0028B9002084F83C002046C7
:1014700000F00CF8022084F83D00211D206800F0E7
:1014800071FA012084F83D000020E9E710B586B02C
:10149000044600BF002000900E48006840F00100A4
:1014A0000C4908600846006800F00100009000BF89
:1014B00000BF4FF4E07001900220039003200490DD
:1014C000022002900120059001A90348FFF728F8A7
:1014D00006B010BD303802400000024070B504462E
:1014E0000E4601223146206800F0A8FA0F49206814
:1014F000884203D00E492068884201D1012000E0D3
:10150000002028B12068406C40F400402168486405
:101510002068806800F00705062D05D02068006867
:1015200040F0010021680860002070BD000001400B
:101530000004014070B504460D4600BF94F83C001D
:10154000012801D1022070BD012084F83C0000BFB9
:10155000022084F83D002946204600F079FB48B17E
:10156000012084F83D0000BF002084F83C0000BF4B
:101570000120E8E72068C06820F040002168C860CA
:101580002068C06820F480402168C860012084F889
:101590003D0000BF002084F83C0000BF00BFD2E740
:1015A00010B504460CB9012010BDA06900B100E0DF
:1015B00000BF94F8390028B9002084F8380020468C
:1015C00000F028F8242084F839002068C06820F44E
:1015D00000502168C860204600F056FC2068006971
:1015E00020F49040216808612068406920F02A00BA
:1015F000216848612068C06840F400502168C860D4
:101600000020E063202084F8390084F83A000020AC
:10161000CAE7000010B586B0044618492068884221
:101620002AD100BF002000901548006840F001005A
:10163000134908600846006800F00100009000BFF0
:1016400000BF4FF4C060019002200290012003907F
:10165000022004900720059001A90A48FEF760FFC8
:10166000094800F02EF82520FFF7C3F803221146A1
:101670002520FFF7CEF800BF06B010BD00100140D6
:1016800030380240000002402C00002000BFFEE77E
:10169000D0F80021117090F80021521C121AD2B219
:1016A0000244C0F8002100F580720CCA9A4207D1AA
:1016B00090F80421521C121AD2B20244C0F804213C
:1016C0007047C0F80001C0F80401704700BFFEE792
:1016D0007047704700B5A1B000BF002001902848B6
:1016E000006840F00100264908600846006800F0E4
:1016F0000100019000BF00BF402111A8FEF73DFE90
:10170000204811900020129044F24F611491002162
:10171000179115911391169111A8FFF79DFE602066
:101720000A9000200C900D900F90109042F22830FB
:101730000B9000200E9000220AA911A8FFF708FEC6
:10174000002002904FF480600390002004900590E8
:101750004FF48050069040000790002008904FF40E
:101760008040099002A911A8FFF79EFC002111A852
:10177000FFF7B4FE002111A8FFF7D0FC21B000BD97
:1017800044380240000001400149486370470000AE
:1017900000000140704710B5FEF7D6FF10BD0000F5
:1017A00010B592B000BF002000902B48006840F0B8
:1017B0008050294908600846006800F08050009079
:1017C00000BF00BF00BF002000902448006840F424
:1017D0004040224908600846006800F440400090FC
:1017E00000BF00BF012006900004079002200C906B
:1017F00041050D9119210E914FF4B4710F91022101
:1018000010910421119106A8FFF7DCF9FFF754F8B5
:101810000F20019002200290002003904FF4A0506E
:1018200004904FF480500590052101A8FFF78AF835
:10183000FFF74AF94FF47A71B0FBF1F42046FFF755
:1018400019FC0420FFF702FC00221146501EFEF78F
:10185000E0FF12B010BD00004038024000700040B0
:101860001448006840F4700012490860124800688B
:1018700040F001001049086000200F49083108605D
:101880000D4800680D4908400B4908600C48091DC7
:101890000860081F006820F48020091F08600020ED
:1018A00005490C3108604FF000600249803908603A
:1018B0007047000088ED00E000380240FFFFF6FEB0
:1018C000103000241648006800F0020098B1144857
:1018D000001F006800F0020068B112480188124839
:1018E000A0F8CC1000200F4908800D482430006873
:1018F0000D49488013E00A48006800F0040070B108
:101900000748001F006800F0040040B10548008847
:101910000549A1F8CA0002482830006808807047CD
:101920001004014018000020340100200B4800681A
:1019300000F0010080B10948001F006800F00100BC
:1019400050B10648006820F00100044908600448CE
:101950000088401C024908807047000010040140C4
:101960001800002010B50268294B98420ED0B0F143
:10197000804F0BD0274B984208D0274B984205D078
:10198000264B984202D0264B984203D122F0700297
:101990004B681A431E4B984220D0B0F1804F1DD0A7
:1019A0001C4B98421AD01C4B984217D01B4B9842A4
:1019B00014D01B4B984211D01A4B98420ED01A4BA0
:1019C00098420BD0194B984208D0194B984205D039
:1019D000184B984202D0184B984203D122F440721F
:1019E000CB681A4322F080034C6943EA0402026088
:1019F0008B68C3620B688362054B984202D0084B28
:101A0000984201D10B6903630123436110BD0000BB
:101A1000000001400004004000080040000C0040AD
:101A200000040140004001400044014000480140E2
:101A300000180040001C00400020004030B501F0BC
:101A40001F05012404FA05F3046A9C430462046A36
:101A500001F01F0502FA05F52C43046230BD30B5D4
:101A600001F01F05042404FA05F3046A9C43046290
:101A7000046A01F01F0502FA05F52C43046230BD2B
:101A800030B50C46816821F47F4142EA03252543A5
:101A90002943816030BD000030B5056A25F001059D
:101AA0000562026A4368846924F0700424F0030428
:101AB0000D682C4322F002028D682A43104DA84283
:101AC00000D103E00F4DA84206D100BF22F008026A
:101AD000CD682A4322F00402094DA84202D0094DE4
:101AE000A84207D123F4807323F400734D692B437C
:101AF0008D692B43436084614D684563026230BD4C
:101B0000000001400004014030B5056A25F01005D1
:101B10000562026A4368846924F4E04424F4407452
:101B20000D6844EA052422F020028D6842EA05127D
:101B3000124DA84200D103E0114DA84207D100BFC9
:101B400022F08002CD6842EA051222F040020B4DDD
:101B5000A84202D00A4DA84209D123F4806323F49D
:101B600000634D6943EA85038D6943EA8503436059
:101B700084614D688563026230BD00000000014051
:101B80000004014030B5056A25F480750562026ADB
:101B90004368C46924F0700424F003040D682C43E6
:101BA00022F400728D6842EA0522124DA84200D14B
:101BB00003E0114DA84207D100BF22F40062CD68B6
:101BC00042EA052222F480620A4DA84202D00A4D60
:101BD000A84209D123F4805323F400534D6943EA0A
:101BE00005138D6943EA05134360C4614D68C563FD
:101BF000026230BD000001400004014030B5056ABA
:101C000025F480550562036A4468C26922F4E04203
:101C100022F440720D6842EA052223F400538D68D5
:101C200043EA0533084DA84202D0084DA84204D12A
:101C300024F480444D6944EA85144460C2614D68CF
:101C40000564036230BD0000000001400004014053
:101C50002DE9F04105460C462868866826F0700696
:101C60006068064326F007062068064328688660F9
:101C7000606800F00F0100293BD10011082838D21C
:101C8000DFE800F0333435360B272D04D4E9031395
:101C9000A2682868FFF7F4FE2CE02068052802D12E
:101CA0000120BDE8F0812868D0F820802868006A0B
:101CB00020F00100296808622868876927F0F0078A
:101CC000206947EA0017286887612868C0F82080E3
:101CD00010E02269A168286800F00FF80AE0226984
:101CE000A168286800F064F804E000BF00BF00BFEE
:101CF00000E000BF00BF0020D3E730B50B4614461C
:101D0000026A056A25F001050562816921F0F0018A
:101D100041EA041122F00A021A438161026230BDD5
:101D200070B50C461546066A26F001060662816902
:101D3000026A184EB04214D0B0F1804F11D0164E46
:101D4000B0420ED0154EB0420BD0154EB04208D066
:101D5000144EB04205D0144EB04202D0134EB042E1
:101D600001D1012600E000261EB121F00301294324
:101D700001E041F0010121F0F001F02606EA03162E
:101D8000314322F00A0204F00A0632438161026202
:101D900070BD000000000140000400400008004049
:101DA000000C0040000401400040014000180040C9
:101DB00030B50B461446056A25F0100505628169A9
:101DC000026A21F4704141EA043122F0A00242EAA1
:101DD00003128161026230BD70B50C461546066A79
:101DE00026F0100606628169026A21F4407141EA18
:101DF000052121F470414FF4704606EA0336314361
:101E000022F0A002A02606EA041632438161026293
:101E100070BD70B50C461546066A26F480760662DB
:101E2000C169026A21F00301294321F0F001F02683
:101E300006EA0316314322F420624FF4206606EAD4
:101E400004263243C161026270BD70B50C4615466E
:101E5000066A26F480560662C169026A21F440715E
:101E600041EA052121F470414FF4704606EA033639
:101E7000314322F420424FF4204606EA043632432E
:101E8000C161026270BD00002DE9F84F0446206870
:101E9000006920F44050E168084321680861216925
:101EA000A068084361690843E1690843009020681D
:101EB000C06849F20C618843009908432168C860F2
:101EC0002068406920F44070A16908432168486196
:101ED000E069B0F5004F75D1E3492068884203D02E
:101EE000E249206888426FD1FEF704FE8146022055
:101EF0006168A0FB01510B461920A9FB00712A461D
:101F00003846FEF7C3F96421B0FBF1F04FEA001A3E
:101F100002206168A0FB01510B461920A9FB00714A
:101F20002A463846FEF7B2F9074602206168A0FB50
:101F300001510B461920A9FB00B12A465846FEF76D
:101F4000A5F96421B0FBF1F000EBC00101EB00103A
:101F5000A7EB8000322101EBC0006421B0FBF1F05F
:101F600000F0F8000AEB400A02206168A0FB015172
:101F70000B461920A9FB00712A463846FEF786F960
:101F8000074602206168A0FB01510B461920A9FBFE
:101F900000B12A465846FEF779F96421B0FBF1F00A
:101FA00000EBC00101EB0010A7EB8000322101EB38
:101FB000C0006421B0FBF1F000F00700504421683C
:101FC00088604FE16EE0FFE7FEF784FD8146022066
:101FD0006168A0FB01510B461920A9FB00712A463C
:101FE0003846FEF753F96421B0FBF1F04FEA001ACE
:101FF00002206168A0FB01510B461920A9FB00716A
:102000002A463846FEF742F9074602206168A0FBDF
:1020100001510B461920A9FB00B12A465846FEF78C
:1020200035F96421B0FBF1F000EBC00101EB0010C9
:10203000A7EB8000322101EBC0006421B0FBF1F07E
:1020400000F0F8000AEB400A02206168A0FB015191
:102050000B461920A9FB00712A463846FEF716F9EF
:10206000074602206168A0FB015003461920A9FB26
:1020700000B12A465846FEF709F96421B0FBF1F099
:1020800000EBC00101EB0010A7EB8000322101EB57
:10209000C0006421B0FBF1F000F00700504421685B
:1020A0008860DFE070492068884203D06F4920686B
:1020B00088426BD1FEF71EFD814604206168A0FBBB
:1020C00001510B461920A9FB00712A463846FEF73C
:1020D000DDF8824604206168A0FB01510B461920FF
:1020E000A9FB00712A463846FEF7D0F86421B0FB00
:1020F000F1F000EBC00101EB0010AAEB80003221EF
:1021000001EB00106421B0FBF1F000F0F00A0420B4
:102110006168A0FB015003461920A9FB00712A4603
:102120003846FEF7B3F86421B0FBF1F00AEB001A71
:1021300004206168A0FB01510B461920A9FB007126
:102140002A463846FEF7A2F8074604206168A0FB3D
:10215000015003461920A9FB00B12A465846FEF754
:1021600095F86421B0FBF1F000EBC00101EB001029
:10217000A7EB8000322101EB00106421B0FBF1F0ED
:1021800000F00F005044216888606BE0FEF7A2FC6D
:10219000814604206168A0FB015003461920A9FB79
:1021A00000712A463846FEF771F8824604206168BD
:1021B000A0FB015003461920A9FB00712A463846AE
:1021C000FEF764F86421B0FBF1F000EBC00101EB15
:1021D0000010AAEB8000322101EB00106421B0FB5B
:1021E000F1F000F0F00A04206168A0FB0150034602
:1021F0001920A9FB00712A463846FEF747F86421EA
:10220000B0FBF1F00AEB001A04206168A0FB01703A
:1022100003461920A9FB005001463A462846FEF71E
:1022200035F8074604206168A0FB015003461920D9
:10223000A9FB00B12A465846FEF728F86421B0FBF6
:10224000F1F000EBC00101EB0010A7EB80003221A0
:1022500001EB00106421B0FBF1F000F00F005044DE
:1022600021688860BDE8F88F00100140001401402B
:1022700010B50848006800F0200050B10548C0685B
:1022800000F0200028B103484068C1B20248FFF7BF
:10229000FFF910BD001001402C00002000B591B0E6
:1022A00000BF002000901348006840F01000114962
:1022B00008600846006800F01000009000BF00BFF2
:1022C0000D4801904FF4E1300290002103910491F8
:1022D000059107910C2106914FF40041089101A846
:1022E000FFF75EF90198C06840F020000199C860CE
:1022F00011B000BD443802400010014000BFFEE7AD
:1023000002480068C0F30220704700000CED00E0B6
:1023100010B5002804DB0A07130E054A135406E023
:102320000A07140E034A00F00F031B1FD45410BDFC
:1023300000E400E018ED00E02DED028BFEF710FA4E
:10234000FFF72EFAFFF7AAFFFFF7C4F9FEF77CF8B4
:1023500024E013480088FFF717FA12480088114953
:10236000B1F8CA1000EB0140801C0F4908600D480D
:102370004188B0F8CC0001EB0040801C0B4908609C
:102380000948006800F072F941EC180B9FED080B4A
:1023900053EC102B00F012F8074A03C2D9E70000F3
:1023A000000000203401002004000020080000206C
:1023B0000000000000806640100000202DE9C041B0
:1023C00030B4DFF8A0C23CEA111418BF3CEA131481
:1023D00000F0EC8081EA03051CEA111444EAD5748C
:1023E00018BF1CEA131500F0C780A4EB05044FF0DA
:1023F000004545EAC12145EAC32341EA505143EA79
:10240000525304F17F74994204F500344FEAC0201E
:102410004FEAC22208BF904200F09C804FEA136549
:102420000FF24016765D4FEA134506FB05F7C7F13C
:10243000807706FB07F74FEAD737A7FB036876429A
:10244000C8F58038A7FB06CE38BFA8F1010807FB06
:1024500008E64FF0000EA6FB028CE6FB03CEDCF193
:10246000000CCEF1004E38BFAEF1010EA6FB0C58A9
:102470004FF000074FF00005E6FB0E87A1FB08C6F2
:10248000A0FB07CE16EB0E0645F10005E1FB076544
:1024900015F1E04E7EBFA4F580345FEA46066D413B
:1024A00016F1800745F100054FEA17274FEA066647
:1024B00047EA0567A6F1DE46B6F1805F4FEA1525CB
:1024C0001FD9384624F0010C05EBC471BCF1FE6F36
:1024D00001EB0C1102D8F0BCBDE8008124425CBFC6
:1024E00001F5801E9EEAC47F02D4F0BCBDE80081E5
:1024F000244238D4F0BCA1F1C041BDE8004100F055
:1025000016B94FEAD22242EA43524FEAD323A7FB3D
:1025100002864FEAD02040EA415007FB03661EEADC
:102520000E0F4FEAD12105FB026658BFA6EB0056FD
:10253000B6EB00564FEA520E4EEAC37E18EB0E0E73
:1025400056EB530EBDD518EB02085E417F1C55F1CA
:102550000005B6E74FF480154FF000074FF0000676
:102560004FF00008ADE7F0BC4FF0000001F1C041B2
:1025700001F00041BDE8008111EA0C1F0CEA1315BF
:1025800000D00CE013EA0C1F00F025804FF0000093
:10259000F0BC81EA030101F00041BDE80081F0BC1C
:1025A000BDE8004181EA030100F0C1B8F0BCBDE81C
:1025B000004170B500F06DF8097EFC3E00F007B8F0
:1025C00081EA03014FF0000001F00041704781EA09
:1025D000030100F0ACB8F0BCBDE800414FF00000D2
:1025E00021497047FFFDFBF9F7F5F4F2F0EEEDEB52
:1025F000E9E8E6E4E3E1E0DEDDDBDAD8D7D5D4D301
:10260000D1D0CFCDCCCBCAC8C7C6C5C4C2C1C0BF4C
:10261000BEBDBCBBBAB9B8B7B6B5B4B3B2B1B0AF52
:10262000AEADACABAAA9A8A8A7A6A5A4A3A3A2A136
:10263000A09F9F9E9D9C9C9B9A99999897979695F1
:1026400095949393929191908F8F8E8E8D8C8C8B8D
:102650008B8A898988888787868585848483838215
:10266000828181800000FF070000F87FB0FA80F3CC
:1026700010FA03F10AD0C3F11D0303F580634FEA9A
:1026800041504FEA035202EBD12170474FF0000056
:1026900070470EF1020E2EF0030E5EF8046B364208
:1026A00005D4012A43EB030515F5001F12D80128B4
:1026B00041EB010C1CF5001F0CD80ED14FEAD17C68
:1026C00015F5001F0CEB4C0C0CF1020C08BF4CEB89
:1026D000D37C04E04FF0080C01E04FEAD37C0CEB14
:1026E0004C0526FA05F606F00706B6F1040C06D2EC
:1026F0000EEB860CBDE870404CF0010C6047DFE843
:102700000CF0090B02024FF000414FF00000A1F560
:10271000002170BD19461046012851EB010418BF75
:10272000D4F5001484BF002001F0004170BD0808FA
:10273000A0F500114FEA310170474FF04070E1EE13
:10274000100A7047000000000000000001020304AE
:102750000607080900000000010203047C270008A6
:10276000000000202C000000E8010008A827000855
:102770002C000020FC0800000402000828230000B0
:102780000000000000000000000000000000000049
:102790000000000000000000000000001000000029
:0827A000010000000024F40018
:04000005080001AD41
:00000001FF
