:020000040800F2
:1000000028050020C101000891130008F112000822
:100010008D130008F9020008691C000800000000A8
:100020000000000000000000000000009513000820
:1000300099030008000000009313000897130008BC
:10004000DB010008DB010008DB010008DB01000820
:10005000DB010008DB010008DB010008DB01000810
:10006000DB010008DB010008DB010008DB01000800
:10007000DB010008DB010008DB010008DB010008F0
:10008000DB010008DB010008DB010008DB010008E0
:10009000DB010008DB010008DB010008DB010008D0
:1000A000DB010008DB010008DB010008DB010008C0
:1000B000C5140008DB010008DB010008DB010008B3
:1000C000DB010008DB010008DB010008DB010008A0
:1000D000DB010008DD1B0008DB010008DB01000874
:1000E000DB010008DB010008DB010008DB01000880
:1000F000DB010008DB010008DB010008DB01000870
:10010000DB010008DB010008DB010008DB0100085F
:10011000DB010008DB010008DB010008DB0100084F
:10012000DB010008DB010008DB010008DB0100083F
:10013000DB010008DB010008DB010008DB0100082F
:10014000DB010008DB010008DB010008DB0100081F
:10015000DB010008DB010008DB010008DB0100080F
:10016000DB010008DB010008DB010008DB010008FF
:10017000DB010008DB010008DB01000800000000D3
:10018000DB010008DB010008DB010008DB010008DF
:10019000DB010008DB010008DB010008DB010008CF
:1001A000DB010008DB010008DB010008DFF80CD0F0
:1001B00000F090F800480047AD1E00082805002018
:1001C0000648804706480047FEE7FEE7FEE7FEE7F1
:1001D000FEE7FEE7FEE7FEE7FEE7FEE76114000844
:1001E000AD0100082DE9F05F0546002092469B46D0
:1001F00088460646814640241BE02846414647463D
:10020000224600F057F853465A46C01A914110D37F
:1002100011461846224600F03EF82D1A67EB0108F9
:100220004F4622460120002100F035F817EB000967
:100230004E41201EA4F10104DFDC484631462A4627
:100240004346BDE8F09FD2B201E000F8012B491E01
:10025000FBD270470022F6E710B513460A46044663
:100260001946FFF7F0FF204610BD30B50B4601469A
:1002700000202022012409E021FA02F59D4205D345
:1002800003FA02F5491B04FA02F52844151EA2F1EF
:100290000102F1DC30BD202A04DB203A00FA02F131
:1002A000002070479140C2F1200320FA03F3194364
:1002B00090407047202A04DB203A21FA02F0002106
:1002C000704721FA02F3D040C2F120029140084366
:1002D00019467047064C074D06E0E06840F0010300
:1002E00094E8070098471034AC42F6D3FFF762FF5A
:1002F000341F0008541F000800BFFEE700B595B08A
:1003000000BF002000902248006840F00100204912
:1003100008600846006800F00100009000BF00BFC0
:10032000402105A8FFF796FF4FF080400590002080
:100330000690411E089100210A914FF480410B91D3
:1003400000210991079105A800F012FF00200190FB
:100350000290039004900490039001900120029079
:10036000002201A905A800F093FE012200210598B2
:1003700001F030F90748806840F0010005498860C5
:100380000598C06840F001000599C86015B000BD2F
:1003900040380240002004E07047000010B50446D9
:1003A0002848006820F44060264908600846006834
:1003B00040F4806008600846406820F020004860F3
:1003C000002021494861322001F036FD1D480068B7
:1003D00020F440601B4908600846006840F4006053
:1003E00008600846006A20F4700008620846006A47
:1003F00040F4801008620020490308610846006844
:1004000040F00100086000BF4FF08040006900F03C
:1004100002000028F8D04FF08040006980F0020010
:100420004FF080410861002048620846006820F0D3
:10043000010008600846406B2080218803A001F07D
:1004400015FC10BD000002408002404274696D65D9
:100450003A25640A000000002DE9F04186B014211D
:1004600001A8FFF7F7FE4FF0000808E001A901EB33
:100470004800FFF793FF08F1010000F0FF08B8F112
:100480000A0FF3DB0026002700250024012016E0D8
:1004900001A931F81010BDF80420891A0DB2AE423E
:1004A00001DD294600E031460E46AF4201DA294619
:1004B00000E039460F4661190CB2411CC8B20A2847
:1004C000E6DBF019201A04B2E410BDF80400204461
:1004D000044908800846018803A001F0C7FB06B064
:1004E000BDE8F0810200002074696D65556E746F7F
:1004F00075636865643A25640A000000F8B5024631
:100500000B460025002400200021E6E0012606FA23
:1005100001F51E6806EA0504AC4273D15E68012E3F
:1005200008D05E68022E05D05E68112E02D05E688B
:10053000122E13D190684F000326BE40B0434F00E7
:10054000DE68BE4030439060506801268E40B04364
:100550001E79C6F300168E4030435060D0684F00BD
:100560000326BE40B0434F009E68BE403043D0607B
:100570005E68022E02D05E68122E13D1CF0802F1FF
:10058000200656F827004E07F70E0F26BE40B04350
:100590004F07FF0E1E69BE403043CF0802F1200610
:1005A00046F8270010684F000326BE40B0431E796E
:1005B00006F003064F00BE40304310605E6806F050
:1005C0008056B6F1805FA8D100BF00260096454E48
:1005D000366846F48046434F3E603E46366806F431
:1005E0008046009600BF00BF3F4E8F0856F8270098
:1005F0008E07370F0F26BE40B0433C4EB24202D1A9
:1006000000262EE068E03A4EB24201D1012628E0F1
:10061000384EB24201D1022623E0374EB24201D118
:1006200003261EE0354EB24201D1042619E0344EB5
:10063000B24201D1052614E0324EB24201D1062663
:100640000FE0314EB24201D107260AE02F4EB242EE
:1006500001D1082605E02E4EB24201D1092600E064
:100660000A268F073F0FBE4030431F4E8F0846F8C3
:100670002700284E3068A0435E6806F48036B6F541
:10068000803F00D12043234E3060361D3068A043A8
:100690005E6806F40036B6F5003F00D120431D4EDB
:1006A000361D3060361D3068A0435E6806F4801643
:1006B000B6F5801F00D12043164E08363060361D37
:1006C0003068A0435E6806F40016B6F5001F00D13E
:1006D0002043104E0C363060491C1029FFF416AF31
:1006E000F8BD0000443802400838014000000240D4
:1006F0000004024000080240000C024000100240CA
:100700000014024000180240001C02400020024079
:1007100000240240003C01400AB1816101E00B0469
:10072000836170470148006870470000080000209E
:100730000348006803490978084401490860704784
:10074000080000201000002010B50D48006840F49B
:1007500000700B4908600846006840F4806008603B
:100760000846006840F480700860032000F084F8B8
:100770000F2000F007F800F02BF8002010BD00005B
:10078000003C024070B504460E4800784FF47A7180
:10079000B1FBF0F00C490968B1FBF0F5284600F018
:1007A0005DFC08B1012070BD102C07D2002221464B
:1007B000501E00F022F80548046001E00120F2E735
:1007C0000020F0E710000020140000200C000020A2
:1007D00010B5052000F050F810BD0146084600286D
:1007E00009DB00F01F0301229A4043099B0003F13B
:1007F000E023C3F8002100BF70472DE9F05F804679
:100800000D461646002701F041FA074639462A46AA
:10081000334601F00700C0F1070ABAF1040F02D90C
:100820004FF0040A01E0C0F1070AD14600F1040AC2
:10083000BAF1070F02D24FF0000A01E0A0F1030A5B
:10084000D4464FF0010A0AFA09FAAAF1010A0AEAA3
:10085000020A0AFA0CFA4FF0010B0BFA0CFBABF18F
:10086000010B0BEA030B4AEA0B042146404601F058
:1008700015FABDE8F09F000000BF00F00702064B2C
:1008800019684FF6FF031940044B0B4343EA02215A
:10089000014B196000BF70470CED00E00000FA0545
:1008A00038B5002400BF002000901D48006840F0CB
:1008B00080501B4908600846006800F08050009096
:1008C00000BF00BF012017490864FFF72BFF044653
:1008D00007E0FFF727FF001BB0F57A7F01D903205F
:1008E00038BD1148406800F48030B0F5803FF0D149
:1008F00001200C494864FFF715FF044607E0FFF7A5
:1009000011FF001BB0F57A7F01D90320E8E7064804
:10091000406800F40030B0F5003FF0D10020DFE780
:100920004038024000000E420070004070B504469E
:100930000D460CB9012070BD5848006800F00F004A
:10094000A84209D255490D700846006800F00F0012
:10095000A84201D00120EEE7207800F00200022832
:100960001DD1207800F00400042805D14C4800680F
:1009700040F4E0504A490860207800F00800082858
:1009800005D14748006840F4604045490860444844
:10099000006820F0F000A168084341490860207811
:1009A00000F00100A8B36068012807D13C4808386E
:1009B0000068C0F34040B8B90120BCE76068022875
:1009C00002D06068032807D1354808380068C0F3B2
:1009D000406048B90120AEE7314808380068C0F3EC
:1009E000400008B90120A6E72D48006820F0030068
:1009F000616808432A490860FFF794FE064609E04B
:100A0000FFF790FE801B41F28831884202D9032013
:100A100091E707E02248006800F00C006168B0EB45
:100A2000810FEDD11D48006800F00F00A84209D9E0
:100A30001A490D700846006800F00F00A84201D066
:100A4000012078E7207800F00400042807D114483A
:100A5000006820F4E050E1680843114908602078FC
:100A600000F00800082808D10D48006820F4604014
:100A7000216940EAC1000A49086000F03FF80849CE
:100A80000968C1F30311074A515CC8400649086070
:100A900006480068FFF776FE00204CE7003C024065
:100AA000083802401C1F0008140000200C00002021
:100AB00001480068704700001400002000B5FFF7EF
:100AC000F7FF04490968C1F38221034A515CC84019
:100AD00000BD0000083802402C1F000800B5FFF7D9
:100AE000E7FF04490968C1F34231034A515CC84039
:100AF00000BD0000083802402C1F00082DE9F04717
:100B0000002400250026A1462548006800F00C00BE
:100B100020B1042805D008283AD105E0DFF88490F8
:100B200039E0DFF8849036E01D48001F006800F0CF
:100B30003F041B48001F006800F4800078B11A4889
:100B40001749091F0968C1F38811A0FB017001460C
:100B5000224600233846FFF745FB05460EE01148C4
:100B60000F49091F0968C1F38811A0FB01700146F4
:100B7000224600233846FFF735FB05460848001F8C
:100B80000068C0F30140401C4600B5FBF6F902E0E6
:100B9000DFF8109000BF00BF4846BDE8F0870000B6
:100BA000083802400024F40040787D01F8B504467E
:100BB0000CB90120F8BD207800F00100002874D0A5
:100BC000F948006800F00C0004280DD0F6480068D1
:100BD00000F00C00082813D1F348001F006800F44F
:100BE0008000B0F5800F0BD1EF4808380068C0F3E3
:100BF0004040002859D06068002856D10120D9E72C
:100C000000BF6068B0F5803F08D1E7480838006849
:100C100040F48030E449083908601EE06068B0F5AF
:100C2000A02F0DD1E0480838006840F48020DE494C
:100C3000083908600846006840F4803008600CE01D
:100C4000D9480838006820F48030D749083908604E
:100C50000846006820F48020086000BF606890B1FA
:100C6000FFF760FD054606E0FFF75CFD401B6428CA
:100C700001D903209EE7CC4808380068C0F3404003
:100C80000028F1D011E0FFF74DFD054606E0FFF723
:100C900049FD401B642801D903208BE7C24808386E
:100CA0000068C0F340400028F1D1207800F0020035
:100CB00002285FD1BC48006800F00C0058B1BA4867
:100CC000006800F00C0008281CD1B748001F00681D
:100CD00000F48000B0B9B44808380068C0F34000A0
:100CE00020B1E068012801D0012063E7AE48083850
:100CF000006820F0F800216940EAC100AA490839DB
:100D0000086037E0E06800B30120A8490860FFF7F9
:100D100009FD054606E0FFF705FD401B022801D945
:100D2000032047E7A04808380068C0F340000028C7
:100D3000F1D09D480838006820F0F800216940EAA9
:100D4000C10099490839086014E0002097490860FB
:100D5000FFF7E8FC054606E0FFF7E4FC401B02282D
:100D600001D9032026E7904808380068C0F3400006
:100D70000028F1D1207800F0080008282CD1606903
:100D8000A8B101208A490860FFF7CCFC054606E0BF
:100D9000FFF7C8FC401B022801D903200AE782485C
:100DA0006C300068C0F340000028F1D014E000204F
:100DB0007F490860FFF7B6FC054606E0FFF7B2FC86
:100DC000401B022801D90320F4E677486C30006804
:100DD000C0F340000028F1D1207800F0040004287E
:100DE00070D1002770483830006800F0805090B90A
:100DF00000BF002000906C483830006840F0805000
:100E00006949383108600846006800F08050009059
:100E100000BF00BF01276748006800F48070B0B9C8
:100E20006448006840F4807062490860FFF77AFC0B
:100E3000054606E0FFF776FC401B022801D9032097
:100E4000B8E65C48006800F480700028F2D000BF6B
:100E5000A068012808D154486830006840F00100BB
:100E60005149683108601DE0A06805280DD14E4841
:100E70006830006840F004004B496831086008465B
:100E8000006840F0010008600CE0474868300068E6
:100E900020F001004449683108600846006820F0ED
:100EA0000400086000BFA068A8B1FFF73BFC05463E
:100EB00009E0FFF737FC401B41F28831884202D934
:100EC000032077E626E0384868300068C0F3400029
:100ED0000028EED013E0FFF725FC054608E0FFF7F9
:100EE00021FC401B41F28831884201D9032061E690
:100EF0002D4868300068C0F340000028EFD1012F72
:100F000007D129483830006820F080502649383110
:100F1000086000BFA069002845D02348006800F0A1
:100F20000C0008285DD0A069022845D100201F4987
:100F30000866FFF7F7FB054606E0FFF7F3FB401BEB
:100F4000022801D9032035E6174808380068C0F3A5
:100F500040600028F1D1D4E907010843616A40EA02
:100F600081110122A06AC2EB500041EA00412C200D
:100F7000005D41EA00600C49091F086001200B492F
:100F80000866FFF7CFFB054606E0FFF7CBFB401BEB
:100F9000022801D903200DE6034808380068C0F391
:100FA00040600028F1D03FE008380240000047428E
:100FB000800E47420070004000201C490866FFF781
:100FC000B1FB054606E0FFF7ADFB401B022801D947
:100FD0000320EFE516480068C0F340600028F2D116
:100FE00022E0A069012800D1E4E51148001D06684F
:100FF00006F48001E069814214D106F03F01206AC5
:1010000081420FD147F6C0703040616A884209D1F1
:1010100006F44031A06A814204D106F07061E06AB2
:10102000814201D00120C5E50020C3E50000474210
:1010300000380240042808D14FF0E021096941F04E
:1010400004014FF0E022116107E04FF0E02109694F
:1010500021F004014FF0E0221161704770B50446A1
:101060002546681EB0F1807F01D301200FE0681E85
:101070004FF0E02148610F214FF0FF3000F00EFEED
:1010800000204FF0E021886107200861002070BD3A
:101090002DE9F04104460D46164600BF94F83C0089
:1010A000012802D10220BDE8F081012084F83C0033
:1010B00000BF022084F83D0096B9EB68D5E9001224
:1010C000206800F099FA2068806920F00C002168FF
:1010D000886120688069A9680843216888613DE0CB
:1010E000042E13D1EB68D5E90012206800F0CCFA89
:1010F0002068806920F440602168886120688069E8
:10110000A96840EA01202168886127E0082E12D1F1
:10111000EB68D5E90012206800F0D3FA2068C069B6
:1011200020F00C002168C8612068C069A9680843E4
:101130002168C86112E0EB68D5E90012206800F070
:10114000DCFA2068C06920F440602168C86120682A
:10115000C069A96840EA01202168C861012084F8BB
:101160003D0000BF002084F83C0000BF00BF9AE7AC
:1011700010B504460CB9012010BD94F83D0028B903
:10118000002084F83C00204600F00CF8022084F88F
:101190003D00211D206800F0B1F9012084F83D00D8
:1011A0000020E9E710B586B0044600BF002000909B
:1011B0001248006840F004001049086008460068C2
:1011C00000F00400009000BF00BF2020019002202A
:1011D000039003200490022002900320059001A9AF
:1011E0000748FFF78BF9012211461C20FFF705FB8A
:1011F0001C20FFF7F2FA06B010BD000030380240A4
:101200000000024010B504460CB9012010BDA069D1
:1012100000B100E000BF94F8390028B9002084F83C
:101220003800204600F028F8242084F8390020688F
:10123000C06820F400502168C860204600F0DAFA47
:101240002068006920F490402168086120684069A6
:1012500020F02A00216848612068C06840F40050EE
:101260002168C8600020E063202084F8390084F8F9
:101270003A000020CAE7000010B586B004461849BD
:10128000206888422AD100BF0020009015480068DD
:1012900040F00100134908600846006800F00100B2
:1012A000009000BF00BF4FF4C06001900220029088
:1012B00001200390022004900720059001A90A480C
:1012C000FFF71CF9094800F02EF82520FFF785FAF2
:1012D000032211462520FFF790FA00BF06B010BD8B
:1012E0000010014030380240000002401C00002085
:1012F00000BFFEE7D0F80021117090F80021521CC9
:10130000121AD2B20244C0F8002100F580720CCA51
:101310009A4207D190F80421521C121AD2B2024408
:10132000C0F804217047C0F80001C0F804017047FC
:1013300000B587B000BF002001901248006840F05F
:101340000200104908600846006800F002000190A1
:1013500000BF00BF032002900120039004900220F0
:10136000059002A90848FFF7C9F80122114606486E
:10137000FFF7D2F9012202210348FFF7CDF907B0A8
:1013800000BD0000303802400004024000BFFEE70C
:1013900070477047704710B5FFF7CAF910BD0000DD
:1013A00010B592B000BF002000902B48006840F0BC
:1013B0008050294908600846006800F0805000907D
:1013C00000BF00BF00BF002000902448006840F428
:1013D0004040224908600846006800F44040009000
:1013E00000BF00BF012006900004079002200C906F
:1013F00041050D9119210E914FF4B4710F91022105
:1014000010910421119106A8FFF7D0FBFFF748FACD
:101410000F20019002200290002003904FF4A05072
:1014200004904FF480500590052101A8FFF77EFA43
:10143000FFF73EFB4FF47A71B0FBF1F42046FFF763
:101440000DFE0420FFF7F6FD00221146501EFFF7A7
:10145000D4F912B010BD00004038024000700040C6
:101460001448006840F4700012490860124800688F
:1014700040F001001049086000200F490831086061
:101480000D4800680D4908400B4908600C48091DCB
:101490000860081F006820F48020091F08600020F1
:1014A00005490C3108604FF000600249803908603E
:1014B0007047000088ED00E000380240FFFFF6FEB4
:1014C000103000244FF08040006900F0010090B11E
:1014D0004FF08040C06800F0010060B14FF08040E4
:1014E000006920F001004FF0804108610248008847
:1014F000401C0149088070470000002010B50268B8
:10150000294B98420ED0B0F1804F0BD0274B984218
:1015100008D0274B984205D0264B984202D0264B44
:10152000984203D122F070024B681A431E4B984236
:1015300020D0B0F1804F1DD01C4B98421AD01C4BCC
:10154000984217D01B4B984214D01B4B984211D095
:101550001A4B98420ED01A4B98420BD0194B984216
:1015600008D0194B984205D0184B984202D0184B1E
:10157000984203D122F44072CB681A4322F08003D0
:101580004C6943EA040202608B68C3620B688362A1
:10159000054B984202D0084B984201D10B69036376
:1015A0000123436110BD0000000001400004004021
:1015B00000080040000C00400004014000400140D1
:1015C000004401400048014000180040001C004059
:1015D0000020004030B501F01F05012404FA05F396
:1015E000046A9C430462046A01F01F0502FA05F5CF
:1015F0002C43046230BD000070B50C461546066AE7
:1016000026F0010606628169026A184EB04214D0C3
:10161000B0F1804F11D0164EB0420ED0154EB042F0
:101620000BD0154EB04208D0144EB04205D0144E27
:10163000B04202D0134EB04201D1012600E0002694
:101640001EB121F00301294301E041F0010121F025
:10165000F001F02606EA0316314322F00A0204F0F4
:101660000A0632438161026270BD00000000014041
:101670000004004000080040000C0040000401404D
:10168000004001400018004070B50C461546066A3F
:1016900026F0100606628169026A21F4407141EA6F
:1016A000052121F470414FF4704606EA03363143B8
:1016B00022F0A002A02606EA0416324381610262EB
:1016C00070BD70B50C461546066A26F48076066233
:1016D000C169026A21F00301294321F0F001F026DB
:1016E00006EA0316314322F420624FF4206606EA2C
:1016F00004263243C161026270BD70B50C461546C6
:10170000066A26F480560662C169026A21F44071B5
:1017100041EA052121F470414FF4704606EA033690
:10172000314322F420424FF4204606EA0436324385
:10173000C161026270BD000000B587B000BF00202B
:1017400001901048006840F001000E49086008460A
:10175000006800F00100019000BF00BF202002904F
:10176000012003900220059002A90748FEF7C6FE5B
:10177000002220210448FEF7CFFFFEF76DFE07B0E0
:1017800000BD0000303802400000024038B5044679
:10179000002000906846FEF701FE1448008800EB28
:1017A0008000BDF80010B1EBA00F10DD0320104940
:1017B00008702078012802D0032806D102E0032017
:1017C000207003E00020207000E000BF0DE000204A
:1017D000207007480078002805DD05480078401E85
:1017E0000349087001E00120207038BD020000208C
:1017F000040000202DE9F84F04462068006920F419
:101800004050E1680843216808612169A0680843E5
:1018100061690843E169084300902068C06849F2A3
:101820000C618843009908432168C86020684069BA
:1018300020F44070A169084321684861E069B0F56F
:10184000004F75D1E3492068884203D0E2492068FF
:1018500088426FD1FFF742F9814602206168A0FB00
:1018600001510B461920A9FB00712A463846FEF7A4
:10187000B9FC6421B0FBF1F04FEA001A0220616864
:10188000A0FB01510B461920A9FB00712A463846DE
:10189000FEF7A8FC074602206168A0FB01510B4639
:1018A0001920A9FB00B12A465846FEF79BFC64218B
:1018B000B0FBF1F000EBC00101EB0010A7EB8000E2
:1018C000322101EBC0006421B0FBF1F000F0F80020
:1018D0000AEB400A02206168A0FB01510B46192067
:1018E000A9FB00712A463846FEF77CFC0746022019
:1018F0006168A0FB01510B461920A9FB00B12A46E3
:101900005846FEF76FFC6421B0FBF1F000EBC0011C
:1019100001EB0010A7EB8000322101EBC000642135
:10192000B0FBF1F000F007005044216888604FE1FF
:101930006EE0FFE7FFF7C2F8814602206168A0FB76
:1019400001510B461920A9FB00712A463846FEF7C3
:1019500049FC6421B0FBF1F04FEA001A02206168F3
:10196000A0FB01510B461920A9FB00712A463846FD
:10197000FEF738FC074602206168A0FB01510B46C8
:101980001920A9FB00B12A465846FEF72BFC64211A
:10199000B0FBF1F000EBC00101EB0010A7EB800001
:1019A000322101EBC0006421B0FBF1F000F0F8003F
:1019B0000AEB400A02206168A0FB01510B46192086
:1019C000A9FB00712A463846FEF70CFC07460220A8
:1019D0006168A0FB015003461920A9FB00B12A460B
:1019E0005846FEF7FFFB6421B0FBF1F000EBC001AD
:1019F00001EB0010A7EB8000322101EBC000642155
:101A0000B0FBF1F000F00700504421688860DFE08F
:101A100070492068884203D06F49206888426BD1A2
:101A2000FFF75CF8814604206168A0FB01510B467A
:101A30001920A9FB00712A463846FEF7D3FB8246DF
:101A400004206168A0FB01510B461920A9FB00711D
:101A50002A463846FEF7C6FB6421B0FBF1F000EBE6
:101A6000C00101EB0010AAEB8000322101EB001055
:101A70006421B0FBF1F000F0F00A04206168A0FBE3
:101A8000015003461920A9FB00712A463846FEF78B
:101A9000A9FB6421B0FBF1F00AEB001A0420616895
:101AA000A0FB01510B461920A9FB00712A463846BC
:101AB000FEF798FB074604206168A0FB015003462F
:101AC0001920A9FB00B12A465846FEF78BFB64217A
:101AD000B0FBF1F000EBC00101EB0010A7EB8000C0
:101AE000322101EB00106421B0FBF1F000F00F0097
:101AF0005044216888606BE0FEF7E0FF81460420D7
:101B00006168A0FB015003461920A9FB00712A4619
:101B10003846FEF767FB824604206168A0FB01504F
:101B200003461920A9FB00712A463846FEF75AFBE6
:101B30006421B0FBF1F000EBC00101EB0010AAEB57
:101B40008000322101EB00106421B0FBF1F000F0C5
:101B5000F00A04206168A0FB015003461920A9FB8C
:101B600000712A463846FEF73DFB6421B0FBF1F0D8
:101B70000AEB001A04206168A0FB017003461920DB
:101B8000A9FB005001463A462846FEF72BFB0746C4
:101B900004206168A0FB015003461920A9FB00B195
:101BA0002A465846FEF71EFB6421B0FBF1F000EB1D
:101BB000C00101EB0010A7EB8000322101EB001007
:101BC0006421B0FBF1F000F00F0050442168886000
:101BD000BDE8F88F001001400014014010B508481E
:101BE000006800F0200050B10548C06800F02000F7
:101BF00028B103484068C1B20248FFF77BFB10BD23
:101C0000001001401C00002000B591B000BF002072
:101C100000901348006840F0100011490860084621
:101C2000006800F01000009000BF00BF0D48019058
:101C30004FF4E13002900021039104910591079146
:101C40000C2106914FF40041089101A8FFF7DAFA40
:101C50000198C06840F020000199C86011B000BD33
:101C6000443802400010014000BFFEE70FB4054BAE
:101C700010B503A9044A029800F034F810BC5DF8CE
:101C800014FB0000911E00081800002002480068A4
:101C9000C0F30220704700000CED00E010B50028F2
:101CA00004DB0A07130E054A135406E00A07140E54
:101CB000034A00F00F031B1FD45410BD00E400E0E2
:101CC00018ED00E002E008C8121F08C1002AFAD18E
:101CD00070477047002001E001C1121F002AFBD1AC
:101CE000704700002DE9FF4F89B09B460446002550
:101CF00006E025280BD05A460B999047641C6D1CB2
:101D000020780028F5D10DB02846BDE8F08F0027D7
:101D1000B8460122474900E0074314F8013F203B41
:101D200002FA03F00842F7D120782E2819D114F8CE
:101D3000010F47F004072A280ED06FF02F022078F9
:101D4000A0F1300109290CD808EB880102EB410110
:101D500000EB0108641CF2E70A98641C50F8048B3D
:101D60000A9020780028CED0642808D0692806D0B0
:101D700075281ED05A460B9990476D1C58E00A9959
:101D80004FF00A0901C90A91002802DA40422D21C8
:101D900002E0390504D52B218DF82010012103E044
:101DA000F90704D02021F7E78A4608AE0DE00021AC
:101DB000FAE70A994FF00A0901C90A91F7E749467B
:101DC000FEF753FA303106F8011D0028F7D1ADEBCC
:101DD000060000F12009780701D44FF00108C8453A
:101DE00002DDA8EB090000E000208046002706E0A5
:101DF00008A85A46C05D0B9990476D1C7F1C57453B
:101E0000F6DB04E030205A460B9990476D1CB8F180
:101E10000001A8F10108F5DC05E016F8010B5A46AF
:101E20000B9990476D1CB9F10001A9F10109F4DC8F
:101E3000641C65E7092801002DE9F04707464FF0CB
:101E4000E0208569FEF75AFE1049B0FBF1F807FB68
:101E500008F900264FF0E020D0F814A011E04FF070
:101E6000E0208469AC420CD0AC4202D2281B06446C
:101E700003E0AAEB04002844064425464E4500D35F
:101E800000E0ECE700BFBDE8F087000040420F0033
:101E900000BF054A126802F08002002AF9D0C2B2DF
:101EA000014B5A60704700000010014008B5002047
:101EB0000090FEF737FC05460024FEF745FCFFF7CF
:101EC0006FFAFFF7A1FEFFF733FAFEF717FAFFF7F5
:101ED00033FC1AE0FEF726FC04466846FFF756FC82
:101EE0009DF80000032805D10848006880F0010033
:101EF00007490860601BB0F57A7F06D32546054880
:101F0000406880F0010004494860E3E78082404275
:101F10008082404280824042808240420000000035
:101F20000000000001020304060708090000000089
:101F300001020304541F0008000000201C000000E0
:101F4000C41C0008701F00081C0000200C050000C5
:101F5000D41C000800000000000000000000000089
:101F600010000000010000000024F4000000000048
:04000005080001AD41
:00000001FF
